{
  "contractName": "EtherTea",
  "abi": [
    {
      "inputs": [],
      "stateMutability": "nonpayable",
      "type": "constructor"
    },
    {
      "inputs": [
        {
          "internalType": "uint256",
          "name": "numerator",
          "type": "uint256"
        },
        {
          "internalType": "uint256",
          "name": "denominator",
          "type": "uint256"
        }
      ],
      "name": "ERC2981InvalidDefaultRoyalty",
      "type": "error"
    },
    {
      "inputs": [
        {
          "internalType": "address",
          "name": "receiver",
          "type": "address"
        }
      ],
      "name": "ERC2981InvalidDefaultRoyaltyReceiver",
      "type": "error"
    },
    {
      "inputs": [
        {
          "internalType": "uint256",
          "name": "tokenId",
          "type": "uint256"
        },
        {
          "internalType": "uint256",
          "name": "numerator",
          "type": "uint256"
        },
        {
          "internalType": "uint256",
          "name": "denominator",
          "type": "uint256"
        }
      ],
      "name": "ERC2981InvalidTokenRoyalty",
      "type": "error"
    },
    {
      "inputs": [
        {
          "internalType": "uint256",
          "name": "tokenId",
          "type": "uint256"
        },
        {
          "internalType": "address",
          "name": "receiver",
          "type": "address"
        }
      ],
      "name": "ERC2981InvalidTokenRoyaltyReceiver",
      "type": "error"
    },
    {
      "inputs": [],
      "name": "ERC721EnumerableForbiddenBatchMint",
      "type": "error"
    },
    {
      "inputs": [
        {
          "internalType": "address",
          "name": "sender",
          "type": "address"
        },
        {
          "internalType": "uint256",
          "name": "tokenId",
          "type": "uint256"
        },
        {
          "internalType": "address",
          "name": "owner",
          "type": "address"
        }
      ],
      "name": "ERC721IncorrectOwner",
      "type": "error"
    },
    {
      "inputs": [
        {
          "internalType": "address",
          "name": "operator",
          "type": "address"
        },
        {
          "internalType": "uint256",
          "name": "tokenId",
          "type": "uint256"
        }
      ],
      "name": "ERC721InsufficientApproval",
      "type": "error"
    },
    {
      "inputs": [
        {
          "internalType": "address",
          "name": "approver",
          "type": "address"
        }
      ],
      "name": "ERC721InvalidApprover",
      "type": "error"
    },
    {
      "inputs": [
        {
          "internalType": "address",
          "name": "operator",
          "type": "address"
        }
      ],
      "name": "ERC721InvalidOperator",
      "type": "error"
    },
    {
      "inputs": [
        {
          "internalType": "address",
          "name": "owner",
          "type": "address"
        }
      ],
      "name": "ERC721InvalidOwner",
      "type": "error"
    },
    {
      "inputs": [
        {
          "internalType": "address",
          "name": "receiver",
          "type": "address"
        }
      ],
      "name": "ERC721InvalidReceiver",
      "type": "error"
    },
    {
      "inputs": [
        {
          "internalType": "address",
          "name": "sender",
          "type": "address"
        }
      ],
      "name": "ERC721InvalidSender",
      "type": "error"
    },
    {
      "inputs": [
        {
          "internalType": "uint256",
          "name": "tokenId",
          "type": "uint256"
        }
      ],
      "name": "ERC721NonexistentToken",
      "type": "error"
    },
    {
      "inputs": [
        {
          "internalType": "address",
          "name": "owner",
          "type": "address"
        },
        {
          "internalType": "uint256",
          "name": "index",
          "type": "uint256"
        }
      ],
      "name": "ERC721OutOfBoundsIndex",
      "type": "error"
    },
    {
      "inputs": [
        {
          "internalType": "address",
          "name": "owner",
          "type": "address"
        }
      ],
      "name": "OwnableInvalidOwner",
      "type": "error"
    },
    {
      "inputs": [
        {
          "internalType": "address",
          "name": "account",
          "type": "address"
        }
      ],
      "name": "OwnableUnauthorizedAccount",
      "type": "error"
    },
    {
      "anonymous": false,
      "inputs": [
        {
          "indexed": true,
          "internalType": "address",
          "name": "owner",
          "type": "address"
        },
        {
          "indexed": true,
          "internalType": "address",
          "name": "approved",
          "type": "address"
        },
        {
          "indexed": true,
          "internalType": "uint256",
          "name": "tokenId",
          "type": "uint256"
        }
      ],
      "name": "Approval",
      "type": "event"
    },
    {
      "anonymous": false,
      "inputs": [
        {
          "indexed": true,
          "internalType": "address",
          "name": "owner",
          "type": "address"
        },
        {
          "indexed": true,
          "internalType": "address",
          "name": "operator",
          "type": "address"
        },
        {
          "indexed": false,
          "internalType": "bool",
          "name": "approved",
          "type": "bool"
        }
      ],
      "name": "ApprovalForAll",
      "type": "event"
    },
    {
      "anonymous": false,
      "inputs": [
        {
          "indexed": true,
          "internalType": "address",
          "name": "previousOwner",
          "type": "address"
        },
        {
          "indexed": true,
          "internalType": "address",
          "name": "newOwner",
          "type": "address"
        }
      ],
      "name": "OwnershipTransferred",
      "type": "event"
    },
    {
      "anonymous": false,
      "inputs": [
        {
          "indexed": true,
          "internalType": "address",
          "name": "from",
          "type": "address"
        },
        {
          "indexed": true,
          "internalType": "address",
          "name": "to",
          "type": "address"
        },
        {
          "indexed": true,
          "internalType": "uint256",
          "name": "tokenId",
          "type": "uint256"
        }
      ],
      "name": "Transfer",
      "type": "event"
    },
    {
      "inputs": [],
      "name": "MAX_PURCHASE",
      "outputs": [
        {
          "internalType": "uint256",
          "name": "",
          "type": "uint256"
        }
      ],
      "stateMutability": "view",
      "type": "function",
      "constant": true
    },
    {
      "inputs": [],
      "name": "MAX_SUPPLY",
      "outputs": [
        {
          "internalType": "uint256",
          "name": "",
          "type": "uint256"
        }
      ],
      "stateMutability": "view",
      "type": "function",
      "constant": true
    },
    {
      "inputs": [
        {
          "internalType": "address",
          "name": "to",
          "type": "address"
        },
        {
          "internalType": "uint256",
          "name": "tokenId",
          "type": "uint256"
        }
      ],
      "name": "approve",
      "outputs": [],
      "stateMutability": "nonpayable",
      "type": "function"
    },
    {
      "inputs": [
        {
          "internalType": "address",
          "name": "owner",
          "type": "address"
        }
      ],
      "name": "balanceOf",
      "outputs": [
        {
          "internalType": "uint256",
          "name": "",
          "type": "uint256"
        }
      ],
      "stateMutability": "view",
      "type": "function",
      "constant": true
    },
    {
      "inputs": [
        {
          "internalType": "uint256",
          "name": "tokenId",
          "type": "uint256"
        }
      ],
      "name": "getApproved",
      "outputs": [
        {
          "internalType": "address",
          "name": "",
          "type": "address"
        }
      ],
      "stateMutability": "view",
      "type": "function",
      "constant": true
    },
    {
      "inputs": [
        {
          "internalType": "address",
          "name": "owner",
          "type": "address"
        },
        {
          "internalType": "address",
          "name": "operator",
          "type": "address"
        }
      ],
      "name": "isApprovedForAll",
      "outputs": [
        {
          "internalType": "bool",
          "name": "",
          "type": "bool"
        }
      ],
      "stateMutability": "view",
      "type": "function",
      "constant": true
    },
    {
      "inputs": [],
      "name": "name",
      "outputs": [
        {
          "internalType": "string",
          "name": "",
          "type": "string"
        }
      ],
      "stateMutability": "view",
      "type": "function",
      "constant": true
    },
    {
      "inputs": [],
      "name": "owner",
      "outputs": [
        {
          "internalType": "address",
          "name": "",
          "type": "address"
        }
      ],
      "stateMutability": "view",
      "type": "function",
      "constant": true
    },
    {
      "inputs": [
        {
          "internalType": "uint256",
          "name": "tokenId",
          "type": "uint256"
        }
      ],
      "name": "ownerOf",
      "outputs": [
        {
          "internalType": "address",
          "name": "",
          "type": "address"
        }
      ],
      "stateMutability": "view",
      "type": "function",
      "constant": true
    },
    {
      "inputs": [],
      "name": "renounceOwnership",
      "outputs": [],
      "stateMutability": "nonpayable",
      "type": "function"
    },
    {
      "inputs": [
        {
          "internalType": "uint256",
          "name": "tokenId",
          "type": "uint256"
        },
        {
          "internalType": "uint256",
          "name": "salePrice",
          "type": "uint256"
        }
      ],
      "name": "royaltyInfo",
      "outputs": [
        {
          "internalType": "address",
          "name": "",
          "type": "address"
        },
        {
          "internalType": "uint256",
          "name": "",
          "type": "uint256"
        }
      ],
      "stateMutability": "view",
      "type": "function",
      "constant": true
    },
    {
      "inputs": [
        {
          "internalType": "address",
          "name": "from",
          "type": "address"
        },
        {
          "internalType": "address",
          "name": "to",
          "type": "address"
        },
        {
          "internalType": "uint256",
          "name": "tokenId",
          "type": "uint256"
        }
      ],
      "name": "safeTransferFrom",
      "outputs": [],
      "stateMutability": "nonpayable",
      "type": "function"
    },
    {
      "inputs": [
        {
          "internalType": "address",
          "name": "from",
          "type": "address"
        },
        {
          "internalType": "address",
          "name": "to",
          "type": "address"
        },
        {
          "internalType": "uint256",
          "name": "tokenId",
          "type": "uint256"
        },
        {
          "internalType": "bytes",
          "name": "data",
          "type": "bytes"
        }
      ],
      "name": "safeTransferFrom",
      "outputs": [],
      "stateMutability": "nonpayable",
      "type": "function"
    },
    {
      "inputs": [
        {
          "internalType": "address",
          "name": "operator",
          "type": "address"
        },
        {
          "internalType": "bool",
          "name": "approved",
          "type": "bool"
        }
      ],
      "name": "setApprovalForAll",
      "outputs": [],
      "stateMutability": "nonpayable",
      "type": "function"
    },
    {
      "inputs": [],
      "name": "symbol",
      "outputs": [
        {
          "internalType": "string",
          "name": "",
          "type": "string"
        }
      ],
      "stateMutability": "view",
      "type": "function",
      "constant": true
    },
    {
      "inputs": [
        {
          "internalType": "uint256",
          "name": "index",
          "type": "uint256"
        }
      ],
      "name": "tokenByIndex",
      "outputs": [
        {
          "internalType": "uint256",
          "name": "",
          "type": "uint256"
        }
      ],
      "stateMutability": "view",
      "type": "function",
      "constant": true
    },
    {
      "inputs": [
        {
          "internalType": "address",
          "name": "owner",
          "type": "address"
        },
        {
          "internalType": "uint256",
          "name": "index",
          "type": "uint256"
        }
      ],
      "name": "tokenOfOwnerByIndex",
      "outputs": [
        {
          "internalType": "uint256",
          "name": "",
          "type": "uint256"
        }
      ],
      "stateMutability": "view",
      "type": "function",
      "constant": true
    },
    {
      "inputs": [],
      "name": "totalSupply",
      "outputs": [
        {
          "internalType": "uint256",
          "name": "",
          "type": "uint256"
        }
      ],
      "stateMutability": "view",
      "type": "function",
      "constant": true
    },
    {
      "inputs": [
        {
          "internalType": "address",
          "name": "from",
          "type": "address"
        },
        {
          "internalType": "address",
          "name": "to",
          "type": "address"
        },
        {
          "internalType": "uint256",
          "name": "tokenId",
          "type": "uint256"
        }
      ],
      "name": "transferFrom",
      "outputs": [],
      "stateMutability": "nonpayable",
      "type": "function"
    },
    {
      "inputs": [
        {
          "internalType": "address",
          "name": "newOwner",
          "type": "address"
        }
      ],
      "name": "transferOwnership",
      "outputs": [],
      "stateMutability": "nonpayable",
      "type": "function"
    },
    {
      "inputs": [
        {
          "internalType": "string",
          "name": "baseURI",
          "type": "string"
        }
      ],
      "name": "setBaseURI",
      "outputs": [],
      "stateMutability": "nonpayable",
      "type": "function"
    },
    {
      "inputs": [
        {
          "internalType": "address",
          "name": "to",
          "type": "address"
        }
      ],
      "name": "safeMint",
      "outputs": [],
      "stateMutability": "nonpayable",
      "type": "function"
    },
    {
      "inputs": [
        {
          "internalType": "uint256",
          "name": "quantity",
          "type": "uint256"
        }
      ],
      "name": "mint",
      "outputs": [],
      "stateMutability": "nonpayable",
      "type": "function"
    },
    {
      "inputs": [
        {
          "internalType": "uint256",
          "name": "tokenId",
          "type": "uint256"
        }
      ],
      "name": "tokenURI",
      "outputs": [
        {
          "internalType": "string",
          "name": "",
          "type": "string"
        }
      ],
      "stateMutability": "view",
      "type": "function",
      "constant": true
    },
    {
      "inputs": [
        {
          "internalType": "bytes4",
          "name": "interfaceId",
          "type": "bytes4"
        }
      ],
      "name": "supportsInterface",
      "outputs": [
        {
          "internalType": "bool",
          "name": "",
          "type": "bool"
        }
      ],
      "stateMutability": "view",
      "type": "function",
      "constant": true
    }
  ],
  "bytecode": "0x60806040526001600d55610bb8600f553480156200001b575f80fd5b50336040518060400160405280600881526020017f45746865725465610000000000000000000000000000000000000000000000008152506040518060400160405280600381526020017f4554540000000000000000000000000000000000000000000000000000000000815250815f908162000099919062000626565b508060019081620000ab919062000626565b5050505f73ffffffffffffffffffffffffffffffffffffffff168173ffffffffffffffffffffffffffffffffffffffff160362000121575f6040517f1e4fbdf70000000000000000000000000000000000000000000000000000000081526004016200011891906200074d565b60405180910390fd5b62000132816200014d60201b60201c565b5062000147336102b26200021060201b60201c565b620007f3565b5f600c5f9054906101000a900473ffffffffffffffffffffffffffffffffffffffff16905081600c5f6101000a81548173ffffffffffffffffffffffffffffffffffffffff021916908373ffffffffffffffffffffffffffffffffffffffff1602179055508173ffffffffffffffffffffffffffffffffffffffff168173ffffffffffffffffffffffffffffffffffffffff167f8be0079c531659141344cd1fd0a4f28419497f9722a3daafe3b4186f6b6457e060405160405180910390a35050565b5f62000221620003b960201b60201c565b6bffffffffffffffffffffffff16905080826bffffffffffffffffffffffff161115620002895781816040517f6f483d0900000000000000000000000000000000000000000000000000000000815260040162000280929190620007c8565b60405180910390fd5b5f73ffffffffffffffffffffffffffffffffffffffff168373ffffffffffffffffffffffffffffffffffffffff1603620002fc575f6040517fb6d9900a000000000000000000000000000000000000000000000000000000008152600401620002f391906200074d565b60405180910390fd5b60405180604001604052808473ffffffffffffffffffffffffffffffffffffffff168152602001836bffffffffffffffffffffffff16815250600a5f820151815f015f6101000a81548173ffffffffffffffffffffffffffffffffffffffff021916908373ffffffffffffffffffffffffffffffffffffffff1602179055506020820151815f0160146101000a8154816bffffffffffffffffffffffff02191690836bffffffffffffffffffffffff160217905550905050505050565b5f612710905090565b5f81519050919050565b7f4e487b71000000000000000000000000000000000000000000000000000000005f52604160045260245ffd5b7f4e487b71000000000000000000000000000000000000000000000000000000005f52602260045260245ffd5b5f60028204905060018216806200043e57607f821691505b602082108103620004545762000453620003f9565b5b50919050565b5f819050815f5260205f209050919050565b5f6020601f8301049050919050565b5f82821b905092915050565b5f60088302620004b87fffffffffffffffffffffffffffffffffffffffffffffffffffffffffffffffff826200047b565b620004c486836200047b565b95508019841693508086168417925050509392505050565b5f819050919050565b5f819050919050565b5f6200050e620005086200050284620004dc565b620004e5565b620004dc565b9050919050565b5f819050919050565b6200052983620004ee565b62000541620005388262000515565b84845462000487565b825550505050565b5f90565b6200055762000549565b620005648184846200051e565b505050565b5b818110156200058b576200057f5f826200054d565b6001810190506200056a565b5050565b601f821115620005da57620005a4816200045a565b620005af846200046c565b81016020851015620005bf578190505b620005d7620005ce856200046c565b83018262000569565b50505b505050565b5f82821c905092915050565b5f620005fc5f1984600802620005df565b1980831691505092915050565b5f620006168383620005eb565b9150826002028217905092915050565b6200063182620003c2565b67ffffffffffffffff8111156200064d576200064c620003cc565b5b62000659825462000426565b620006668282856200058f565b5f60209050601f8311600181146200069c575f841562000687578287015190505b62000693858262000609565b86555062000702565b601f198416620006ac866200045a565b5f5b82811015620006d557848901518255600182019150602085019450602081019050620006ae565b86831015620006f55784890151620006f1601f891682620005eb565b8355505b6001600288020188555050505b505050505050565b5f73ffffffffffffffffffffffffffffffffffffffff82169050919050565b5f62000735826200070a565b9050919050565b620007478162000729565b82525050565b5f602082019050620007625f8301846200073c565b92915050565b5f6bffffffffffffffffffffffff82169050919050565b5f6200079f62000799620007938462000768565b620004e5565b620004dc565b9050919050565b620007b1816200077f565b82525050565b620007c281620004dc565b82525050565b5f604082019050620007dd5f830185620007a6565b620007ec6020830184620007b7565b9392505050565b61315f80620008015f395ff3fe608060405234801561000f575f80fd5b5060043610610171575f3560e01c806355f804b3116100dc57806395d89b4111610095578063b88d4fde1161006f578063b88d4fde14610448578063c87b56dd14610464578063e985e9c514610494578063f2fde38b146104c457610171565b806395d89b41146103f2578063a0712d6814610410578063a22cb4651461042c57610171565b806355f804b3146103305780636352211e1461034c57806370a082311461037c5780637146bd08146103ac578063715018a6146103ca5780638da5cb5b146103d457610171565b80632a55205a1161012e5780632a55205a146102495780632f745c591461027a57806332cb6b0c146102aa57806340d097c3146102c857806342842e0e146102e45780634f6ccce71461030057610171565b806301ffc9a71461017557806306fdde03146101a5578063081812fc146101c3578063095ea7b3146101f357806318160ddd1461020f57806323b872dd1461022d575b5f80fd5b61018f600480360381019061018a91906122ec565b6104e0565b60405161019c9190612331565b60405180910390f35b6101ad6104f1565b6040516101ba91906123d4565b60405180910390f35b6101dd60048036038101906101d89190612427565b610580565b6040516101ea9190612491565b60405180910390f35b61020d600480360381019061020891906124d4565b61059b565b005b6102176105b1565b6040516102249190612521565b60405180910390f35b6102476004803603810190610242919061253a565b6105bd565b005b610263600480360381019061025e919061258a565b6106bc565b6040516102719291906125c8565b60405180910390f35b610294600480360381019061028f91906124d4565b610898565b6040516102a19190612521565b60405180910390f35b6102b261093c565b6040516102bf9190612521565b60405180910390f35b6102e260048036038101906102dd91906125ef565b610942565b005b6102fe60048036038101906102f9919061253a565b610959565b005b61031a60048036038101906103159190612427565b610978565b6040516103279190612521565b60405180910390f35b61034a60048036038101906103459190612746565b6109ea565b005b61036660048036038101906103619190612427565b610a05565b6040516103739190612491565b60405180910390f35b610396600480360381019061039191906125ef565b610a16565b6040516103a39190612521565b60405180910390f35b6103b4610acc565b6040516103c19190612521565b60405180910390f35b6103d2610ad1565b005b6103dc610ae4565b6040516103e99190612491565b60405180910390f35b6103fa610b0c565b60405161040791906123d4565b60405180910390f35b61042a60048036038101906104259190612427565b610b9c565b005b610446600480360381019061044191906127b7565b610cbe565b005b610462600480360381019061045d9190612893565b610cd4565b005b61047e60048036038101906104799190612427565b610cf1565b60405161048b91906123d4565b60405180910390f35b6104ae60048036038101906104a99190612913565b610d25565b6040516104bb9190612331565b60405180910390f35b6104de60048036038101906104d991906125ef565b610db3565b005b5f6104ea82610e37565b9050919050565b60605f80546104ff9061297e565b80601f016020809104026020016040519081016040528092919081815260200182805461052b9061297e565b80156105765780601f1061054d57610100808354040283529160200191610576565b820191905f5260205f20905b81548152906001019060200180831161055957829003601f168201915b5050505050905090565b5f61058a82610eb0565b5061059482610f36565b9050919050565b6105ad82826105a8610f6f565b610f76565b5050565b5f600880549050905090565b5f73ffffffffffffffffffffffffffffffffffffffff168273ffffffffffffffffffffffffffffffffffffffff160361062d575f6040517f64a0ae920000000000000000000000000000000000000000000000000000000081526004016106249190612491565b60405180910390fd5b5f610640838361063b610f6f565b610f88565b90508373ffffffffffffffffffffffffffffffffffffffff168173ffffffffffffffffffffffffffffffffffffffff16146106b6578382826040517f64283d7b0000000000000000000000000000000000000000000000000000000081526004016106ad939291906129ae565b60405180910390fd5b50505050565b5f805f600b5f8681526020019081526020015f206040518060400160405290815f82015f9054906101000a900473ffffffffffffffffffffffffffffffffffffffff1673ffffffffffffffffffffffffffffffffffffffff1673ffffffffffffffffffffffffffffffffffffffff1681526020015f820160149054906101000a90046bffffffffffffffffffffffff166bffffffffffffffffffffffff166bffffffffffffffffffffffff168152505090505f73ffffffffffffffffffffffffffffffffffffffff16815f015173ffffffffffffffffffffffffffffffffffffffff160361084557600a6040518060400160405290815f82015f9054906101000a900473ffffffffffffffffffffffffffffffffffffffff1673ffffffffffffffffffffffffffffffffffffffff1673ffffffffffffffffffffffffffffffffffffffff1681526020015f820160149054906101000a90046bffffffffffffffffffffffff166bffffffffffffffffffffffff166bffffffffffffffffffffffff168152505090505b5f61084e610f9d565b6bffffffffffffffffffffffff1682602001516bffffffffffffffffffffffff168661087a9190612a10565b6108849190612a7e565b9050815f0151819350935050509250929050565b5f6108a283610a16565b82106108e75782826040517fa57d13dc0000000000000000000000000000000000000000000000000000000081526004016108de9291906125c8565b60405180910390fd5b60065f8473ffffffffffffffffffffffffffffffffffffffff1673ffffffffffffffffffffffffffffffffffffffff1681526020019081526020015f205f8381526020019081526020015f2054905092915050565b600f5481565b61094a610fa6565b61095681600d5461102d565b50565b61097383838360405180602001604052805f815250610cd4565b505050565b5f6109816105b1565b82106109c6575f826040517fa57d13dc0000000000000000000000000000000000000000000000000000000081526004016109bd9291906125c8565b60405180910390fd5b600882815481106109da576109d9612aae565b5b905f5260205f2001549050919050565b6109f2610fa6565b80600e9081610a019190612c78565b5050565b5f610a0f82610eb0565b9050919050565b5f8073ffffffffffffffffffffffffffffffffffffffff168273ffffffffffffffffffffffffffffffffffffffff1603610a87575f6040517f89c62b64000000000000000000000000000000000000000000000000000000008152600401610a7e9190612491565b60405180910390fd5b60035f8373ffffffffffffffffffffffffffffffffffffffff1673ffffffffffffffffffffffffffffffffffffffff1681526020019081526020015f20549050919050565b600281565b610ad9610fa6565b610ae25f61104a565b565b5f600c5f9054906101000a900473ffffffffffffffffffffffffffffffffffffffff16905090565b606060018054610b1b9061297e565b80601f0160208091040260200160405190810160405280929190818152602001828054610b479061297e565b8015610b925780601f10610b6957610100808354040283529160200191610b92565b820191905f5260205f20905b815481529060010190602001808311610b7557829003601f168201915b5050505050905090565b6002811115610be0576040517f08c379a0000000000000000000000000000000000000000000000000000000008152600401610bd790612db7565b60405180910390fd5b600f54811115610c25576040517f08c379a0000000000000000000000000000000000000000000000000000000008152600401610c1c90612e45565b60405180910390fd5b600f5481600d54610c369190612e63565b1115610c77576040517f08c379a0000000000000000000000000000000000000000000000000000000008152600401610c6e90612e45565b60405180910390fd5b5f5b818160ff161015610cba57610c9033600d5461102d565b600d5f815480929190610ca290612e96565b91905055508080610cb290612ee9565b915050610c79565b5050565b610cd0610cc9610f6f565b838361110d565b5050565b610cdf8484846105bd565b610ceb84848484611276565b50505050565b6060600e610cfe83611428565b604051602001610d0f929190612fcb565b6040516020818303038152906040529050919050565b5f60055f8473ffffffffffffffffffffffffffffffffffffffff1673ffffffffffffffffffffffffffffffffffffffff1681526020019081526020015f205f8373ffffffffffffffffffffffffffffffffffffffff1673ffffffffffffffffffffffffffffffffffffffff1681526020019081526020015f205f9054906101000a900460ff16905092915050565b610dbb610fa6565b5f73ffffffffffffffffffffffffffffffffffffffff168173ffffffffffffffffffffffffffffffffffffffff1603610e2b575f6040517f1e4fbdf7000000000000000000000000000000000000000000000000000000008152600401610e229190612491565b60405180910390fd5b610e348161104a565b50565b5f7f2a55205a000000000000000000000000000000000000000000000000000000007bffffffffffffffffffffffffffffffffffffffffffffffffffffffff1916827bffffffffffffffffffffffffffffffffffffffffffffffffffffffff19161480610ea95750610ea8826114f2565b5b9050919050565b5f80610ebb8361156b565b90505f73ffffffffffffffffffffffffffffffffffffffff168173ffffffffffffffffffffffffffffffffffffffff1603610f2d57826040517f7e273289000000000000000000000000000000000000000000000000000000008152600401610f249190612521565b60405180910390fd5b80915050919050565b5f60045f8381526020019081526020015f205f9054906101000a900473ffffffffffffffffffffffffffffffffffffffff169050919050565b5f33905090565b610f8383838360016115a4565b505050565b5f610f94848484611763565b90509392505050565b5f612710905090565b610fae610f6f565b73ffffffffffffffffffffffffffffffffffffffff16610fcc610ae4565b73ffffffffffffffffffffffffffffffffffffffff161461102b57610fef610f6f565b6040517f118cdaa70000000000000000000000000000000000000000000000000000000081526004016110229190612491565b60405180910390fd5b565b611046828260405180602001604052805f81525061187d565b5050565b5f600c5f9054906101000a900473ffffffffffffffffffffffffffffffffffffffff16905081600c5f6101000a81548173ffffffffffffffffffffffffffffffffffffffff021916908373ffffffffffffffffffffffffffffffffffffffff1602179055508173ffffffffffffffffffffffffffffffffffffffff168173ffffffffffffffffffffffffffffffffffffffff167f8be0079c531659141344cd1fd0a4f28419497f9722a3daafe3b4186f6b6457e060405160405180910390a35050565b5f73ffffffffffffffffffffffffffffffffffffffff168273ffffffffffffffffffffffffffffffffffffffff160361117d57816040517f5b08ba180000000000000000000000000000000000000000000000000000000081526004016111749190612491565b60405180910390fd5b8060055f8573ffffffffffffffffffffffffffffffffffffffff1673ffffffffffffffffffffffffffffffffffffffff1681526020019081526020015f205f8473ffffffffffffffffffffffffffffffffffffffff1673ffffffffffffffffffffffffffffffffffffffff1681526020019081526020015f205f6101000a81548160ff0219169083151502179055508173ffffffffffffffffffffffffffffffffffffffff168373ffffffffffffffffffffffffffffffffffffffff167f17307eab39ab6107e8899845ad3d59bd9653f200f220920489ca2b5937696c31836040516112699190612331565b60405180910390a3505050565b5f8373ffffffffffffffffffffffffffffffffffffffff163b1115611422578273ffffffffffffffffffffffffffffffffffffffff1663150b7a026112b9610f6f565b8685856040518563ffffffff1660e01b81526004016112db9493929190613040565b6020604051808303815f875af192505050801561131657506040513d601f19601f82011682018060405250810190611313919061309e565b60015b611397573d805f8114611344576040519150601f19603f3d011682016040523d82523d5f602084013e611349565b606091505b505f81510361138f57836040517f64a0ae920000000000000000000000000000000000000000000000000000000081526004016113869190612491565b60405180910390fd5b805181602001fd5b63150b7a0260e01b7bffffffffffffffffffffffffffffffffffffffffffffffffffffffff1916817bffffffffffffffffffffffffffffffffffffffffffffffffffffffff19161461142057836040517f64a0ae920000000000000000000000000000000000000000000000000000000081526004016114179190612491565b60405180910390fd5b505b50505050565b60605f600161143684611898565b0190505f8167ffffffffffffffff81111561145457611453612622565b5b6040519080825280601f01601f1916602001820160405280156114865781602001600182028036833780820191505090505b5090505f82602001820190505b6001156114e7578080600190039150507f3031323334353637383961626364656600000000000000000000000000000000600a86061a8153600a85816114dc576114db612a51565b5b0494505f8503611493575b819350505050919050565b5f7f780e9d63000000000000000000000000000000000000000000000000000000007bffffffffffffffffffffffffffffffffffffffffffffffffffffffff1916827bffffffffffffffffffffffffffffffffffffffffffffffffffffffff191614806115645750611563826119e9565b5b9050919050565b5f60025f8381526020019081526020015f205f9054906101000a900473ffffffffffffffffffffffffffffffffffffffff169050919050565b80806115dc57505f73ffffffffffffffffffffffffffffffffffffffff168273ffffffffffffffffffffffffffffffffffffffff1614155b1561170e575f6115eb84610eb0565b90505f73ffffffffffffffffffffffffffffffffffffffff168373ffffffffffffffffffffffffffffffffffffffff161415801561165557508273ffffffffffffffffffffffffffffffffffffffff168173ffffffffffffffffffffffffffffffffffffffff1614155b801561166857506116668184610d25565b155b156116aa57826040517fa9fbf51f0000000000000000000000000000000000000000000000000000000081526004016116a19190612491565b60405180910390fd5b811561170c57838573ffffffffffffffffffffffffffffffffffffffff168273ffffffffffffffffffffffffffffffffffffffff167f8c5be1e5ebec7d5bd14f71427d1e84f3dd0314c0f7b2291e5b200ac8c7c3b92560405160405180910390a45b505b8360045f8581526020019081526020015f205f6101000a81548173ffffffffffffffffffffffffffffffffffffffff021916908373ffffffffffffffffffffffffffffffffffffffff16021790555050505050565b5f80611770858585611aca565b90505f73ffffffffffffffffffffffffffffffffffffffff168173ffffffffffffffffffffffffffffffffffffffff16036117b3576117ae84611cd5565b6117f2565b8473ffffffffffffffffffffffffffffffffffffffff168173ffffffffffffffffffffffffffffffffffffffff16146117f1576117f08185611d19565b5b5b5f73ffffffffffffffffffffffffffffffffffffffff168573ffffffffffffffffffffffffffffffffffffffff16036118335761182e84611e63565b611872565b8473ffffffffffffffffffffffffffffffffffffffff168173ffffffffffffffffffffffffffffffffffffffff1614611871576118708585611f23565b5b5b809150509392505050565b6118878383611fa7565b6118935f848484611276565b505050565b5f805f90507a184f03e93ff9f4daa797ed6e38ed64bf6a1f01000000000000000083106118f4577a184f03e93ff9f4daa797ed6e38ed64bf6a1f01000000000000000083816118ea576118e9612a51565b5b0492506040810190505b6d04ee2d6d415b85acef81000000008310611931576d04ee2d6d415b85acef8100000000838161192757611926612a51565b5b0492506020810190505b662386f26fc10000831061196057662386f26fc10000838161195657611955612a51565b5b0492506010810190505b6305f5e1008310611989576305f5e100838161197f5761197e612a51565b5b0492506008810190505b61271083106119ae5761271083816119a4576119a3612a51565b5b0492506004810190505b606483106119d157606483816119c7576119c6612a51565b5b0492506002810190505b600a83106119e0576001810190505b80915050919050565b5f7f80ac58cd000000000000000000000000000000000000000000000000000000007bffffffffffffffffffffffffffffffffffffffffffffffffffffffff1916827bffffffffffffffffffffffffffffffffffffffffffffffffffffffff19161480611ab357507f5b5e139f000000000000000000000000000000000000000000000000000000007bffffffffffffffffffffffffffffffffffffffffffffffffffffffff1916827bffffffffffffffffffffffffffffffffffffffffffffffffffffffff1916145b80611ac35750611ac28261209a565b5b9050919050565b5f80611ad58461156b565b90505f73ffffffffffffffffffffffffffffffffffffffff168373ffffffffffffffffffffffffffffffffffffffff1614611b1657611b15818486612103565b5b5f73ffffffffffffffffffffffffffffffffffffffff168173ffffffffffffffffffffffffffffffffffffffff1614611ba157611b555f855f806115a4565b600160035f8373ffffffffffffffffffffffffffffffffffffffff1673ffffffffffffffffffffffffffffffffffffffff1681526020019081526020015f205f82825403925050819055505b5f73ffffffffffffffffffffffffffffffffffffffff168573ffffffffffffffffffffffffffffffffffffffff1614611c2057600160035f8773ffffffffffffffffffffffffffffffffffffffff1673ffffffffffffffffffffffffffffffffffffffff1681526020019081526020015f205f82825401925050819055505b8460025f8681526020019081526020015f205f6101000a81548173ffffffffffffffffffffffffffffffffffffffff021916908373ffffffffffffffffffffffffffffffffffffffff160217905550838573ffffffffffffffffffffffffffffffffffffffff168273ffffffffffffffffffffffffffffffffffffffff167fddf252ad1be2c89b69c2b068fc378daa952ba7f163c4a11628f55a4df523b3ef60405160405180910390a4809150509392505050565b60088054905060095f8381526020019081526020015f2081905550600881908060018154018082558091505060019003905f5260205f20015f909190919091505550565b5f611d2383610a16565b90505f60075f8481526020019081526020015f20549050818114611dfa575f60065f8673ffffffffffffffffffffffffffffffffffffffff1673ffffffffffffffffffffffffffffffffffffffff1681526020019081526020015f205f8481526020019081526020015f205490508060065f8773ffffffffffffffffffffffffffffffffffffffff1673ffffffffffffffffffffffffffffffffffffffff1681526020019081526020015f205f8481526020019081526020015f20819055508160075f8381526020019081526020015f2081905550505b60075f8481526020019081526020015f205f905560065f8573ffffffffffffffffffffffffffffffffffffffff1673ffffffffffffffffffffffffffffffffffffffff1681526020019081526020015f205f8381526020019081526020015f205f905550505050565b5f6001600880549050611e7691906130c9565b90505f60095f8481526020019081526020015f205490505f60088381548110611ea257611ea1612aae565b5b905f5260205f20015490508060088381548110611ec257611ec1612aae565b5b905f5260205f2001819055508160095f8381526020019081526020015f208190555060095f8581526020019081526020015f205f90556008805480611f0a57611f096130fc565b5b600190038181905f5260205f20015f9055905550505050565b5f6001611f2f84610a16565b611f3991906130c9565b90508160065f8573ffffffffffffffffffffffffffffffffffffffff1673ffffffffffffffffffffffffffffffffffffffff1681526020019081526020015f205f8381526020019081526020015f20819055508060075f8481526020019081526020015f2081905550505050565b5f73ffffffffffffffffffffffffffffffffffffffff168273ffffffffffffffffffffffffffffffffffffffff1603612017575f6040517f64a0ae9200000000000000000000000000000000000000000000000000000000815260040161200e9190612491565b60405180910390fd5b5f61202383835f610f88565b90505f73ffffffffffffffffffffffffffffffffffffffff168173ffffffffffffffffffffffffffffffffffffffff1614612095575f6040517f73c6ac6e00000000000000000000000000000000000000000000000000000000815260040161208c9190612491565b60405180910390fd5b505050565b5f7f01ffc9a7000000000000000000000000000000000000000000000000000000007bffffffffffffffffffffffffffffffffffffffffffffffffffffffff1916827bffffffffffffffffffffffffffffffffffffffffffffffffffffffff1916149050919050565b61210e8383836121c6565b6121c1575f73ffffffffffffffffffffffffffffffffffffffff168373ffffffffffffffffffffffffffffffffffffffff160361218257806040517f7e2732890000000000000000000000000000000000000000000000000000000081526004016121799190612521565b60405180910390fd5b81816040517f177e802f0000000000000000000000000000000000000000000000000000000081526004016121b89291906125c8565b60405180910390fd5b505050565b5f8073ffffffffffffffffffffffffffffffffffffffff168373ffffffffffffffffffffffffffffffffffffffff161415801561227d57508273ffffffffffffffffffffffffffffffffffffffff168473ffffffffffffffffffffffffffffffffffffffff16148061223e575061223d8484610d25565b5b8061227c57508273ffffffffffffffffffffffffffffffffffffffff1661226483610f36565b73ffffffffffffffffffffffffffffffffffffffff16145b5b90509392505050565b5f604051905090565b5f80fd5b5f80fd5b5f7fffffffff0000000000000000000000000000000000000000000000000000000082169050919050565b6122cb81612297565b81146122d5575f80fd5b50565b5f813590506122e6816122c2565b92915050565b5f602082840312156123015761230061228f565b5b5f61230e848285016122d8565b91505092915050565b5f8115159050919050565b61232b81612317565b82525050565b5f6020820190506123445f830184612322565b92915050565b5f81519050919050565b5f82825260208201905092915050565b5f5b83811015612381578082015181840152602081019050612366565b5f8484015250505050565b5f601f19601f8301169050919050565b5f6123a68261234a565b6123b08185612354565b93506123c0818560208601612364565b6123c98161238c565b840191505092915050565b5f6020820190508181035f8301526123ec818461239c565b905092915050565b5f819050919050565b612406816123f4565b8114612410575f80fd5b50565b5f81359050612421816123fd565b92915050565b5f6020828403121561243c5761243b61228f565b5b5f61244984828501612413565b91505092915050565b5f73ffffffffffffffffffffffffffffffffffffffff82169050919050565b5f61247b82612452565b9050919050565b61248b81612471565b82525050565b5f6020820190506124a45f830184612482565b92915050565b6124b381612471565b81146124bd575f80fd5b50565b5f813590506124ce816124aa565b92915050565b5f80604083850312156124ea576124e961228f565b5b5f6124f7858286016124c0565b925050602061250885828601612413565b9150509250929050565b61251b816123f4565b82525050565b5f6020820190506125345f830184612512565b92915050565b5f805f606084860312156125515761255061228f565b5b5f61255e868287016124c0565b935050602061256f868287016124c0565b925050604061258086828701612413565b9150509250925092565b5f80604083850312156125a05761259f61228f565b5b5f6125ad85828601612413565b92505060206125be85828601612413565b9150509250929050565b5f6040820190506125db5f830185612482565b6125e86020830184612512565b9392505050565b5f602082840312156126045761260361228f565b5b5f612611848285016124c0565b91505092915050565b5f80fd5b5f80fd5b7f4e487b71000000000000000000000000000000000000000000000000000000005f52604160045260245ffd5b6126588261238c565b810181811067ffffffffffffffff8211171561267757612676612622565b5b80604052505050565b5f612689612286565b9050612695828261264f565b919050565b5f67ffffffffffffffff8211156126b4576126b3612622565b5b6126bd8261238c565b9050602081019050919050565b828183375f83830152505050565b5f6126ea6126e58461269a565b612680565b9050828152602081018484840111156127065761270561261e565b5b6127118482856126ca565b509392505050565b5f82601f83011261272d5761272c61261a565b5b813561273d8482602086016126d8565b91505092915050565b5f6020828403121561275b5761275a61228f565b5b5f82013567ffffffffffffffff81111561277857612777612293565b5b61278484828501612719565b91505092915050565b61279681612317565b81146127a0575f80fd5b50565b5f813590506127b18161278d565b92915050565b5f80604083850312156127cd576127cc61228f565b5b5f6127da858286016124c0565b92505060206127eb858286016127a3565b9150509250929050565b5f67ffffffffffffffff82111561280f5761280e612622565b5b6128188261238c565b9050602081019050919050565b5f612837612832846127f5565b612680565b9050828152602081018484840111156128535761285261261e565b5b61285e8482856126ca565b509392505050565b5f82601f83011261287a5761287961261a565b5b813561288a848260208601612825565b91505092915050565b5f805f80608085870312156128ab576128aa61228f565b5b5f6128b8878288016124c0565b94505060206128c9878288016124c0565b93505060406128da87828801612413565b925050606085013567ffffffffffffffff8111156128fb576128fa612293565b5b61290787828801612866565b91505092959194509250565b5f80604083850312156129295761292861228f565b5b5f612936858286016124c0565b9250506020612947858286016124c0565b9150509250929050565b7f4e487b71000000000000000000000000000000000000000000000000000000005f52602260045260245ffd5b5f600282049050600182168061299557607f821691505b6020821081036129a8576129a7612951565b5b50919050565b5f6060820190506129c15f830186612482565b6129ce6020830185612512565b6129db6040830184612482565b949350505050565b7f4e487b71000000000000000000000000000000000000000000000000000000005f52601160045260245ffd5b5f612a1a826123f4565b9150612a25836123f4565b9250828202612a33816123f4565b91508282048414831517612a4a57612a496129e3565b5b5092915050565b7f4e487b71000000000000000000000000000000000000000000000000000000005f52601260045260245ffd5b5f612a88826123f4565b9150612a93836123f4565b925082612aa357612aa2612a51565b5b828204905092915050565b7f4e487b71000000000000000000000000000000000000000000000000000000005f52603260045260245ffd5b5f819050815f5260205f209050919050565b5f6020601f8301049050919050565b5f82821b905092915050565b5f60088302612b377fffffffffffffffffffffffffffffffffffffffffffffffffffffffffffffffff82612afc565b612b418683612afc565b95508019841693508086168417925050509392505050565b5f819050919050565b5f612b7c612b77612b72846123f4565b612b59565b6123f4565b9050919050565b5f819050919050565b612b9583612b62565b612ba9612ba182612b83565b848454612b08565b825550505050565b5f90565b612bbd612bb1565b612bc8818484612b8c565b505050565b5b81811015612beb57612be05f82612bb5565b600181019050612bce565b5050565b601f821115612c3057612c0181612adb565b612c0a84612aed565b81016020851015612c19578190505b612c2d612c2585612aed565b830182612bcd565b50505b505050565b5f82821c905092915050565b5f612c505f1984600802612c35565b1980831691505092915050565b5f612c688383612c41565b9150826002028217905092915050565b612c818261234a565b67ffffffffffffffff811115612c9a57612c99612622565b5b612ca4825461297e565b612caf828285612bef565b5f60209050601f831160018114612ce0575f8415612cce578287015190505b612cd88582612c5d565b865550612d3f565b601f198416612cee86612adb565b5f5b82811015612d1557848901518255600182019150602085019450602081019050612cf0565b86831015612d325784890151612d2e601f891682612c41565b8355505b6001600288020188555050505b505050505050565b7f4d696e743a207469636b65747320746f206d696e742065786365656473206d615f8201527f7820706572207472616e736174696f6e73000000000000000000000000000000602082015250565b5f612da1603183612354565b9150612dac82612d47565b604082019050919050565b5f6020820190508181035f830152612dce81612d95565b9050919050565b7f4d696e743a20507572636861736520776f756c6420657863656564206d6178205f8201527f737570706c790000000000000000000000000000000000000000000000000000602082015250565b5f612e2f602683612354565b9150612e3a82612dd5565b604082019050919050565b5f6020820190508181035f830152612e5c81612e23565b9050919050565b5f612e6d826123f4565b9150612e78836123f4565b9250828201905080821115612e9057612e8f6129e3565b5b92915050565b5f612ea0826123f4565b91507fffffffffffffffffffffffffffffffffffffffffffffffffffffffffffffffff8203612ed257612ed16129e3565b5b600182019050919050565b5f60ff82169050919050565b5f612ef382612edd565b915060ff8203612f0657612f056129e3565b5b600182019050919050565b5f81905092915050565b5f8154612f278161297e565b612f318186612f11565b9450600182165f8114612f4b5760018114612f6057612f92565b60ff1983168652811515820286019350612f92565b612f6985612adb565b5f5b83811015612f8a57815481890152600182019150602081019050612f6b565b838801955050505b50505092915050565b5f612fa58261234a565b612faf8185612f11565b9350612fbf818560208601612364565b80840191505092915050565b5f612fd68285612f1b565b9150612fe28284612f9b565b91508190509392505050565b5f81519050919050565b5f82825260208201905092915050565b5f61301282612fee565b61301c8185612ff8565b935061302c818560208601612364565b6130358161238c565b840191505092915050565b5f6080820190506130535f830187612482565b6130606020830186612482565b61306d6040830185612512565b818103606083015261307f8184613008565b905095945050505050565b5f81519050613098816122c2565b92915050565b5f602082840312156130b3576130b261228f565b5b5f6130c08482850161308a565b91505092915050565b5f6130d3826123f4565b91506130de836123f4565b92508282039050818111156130f6576130f56129e3565b5b92915050565b7f4e487b71000000000000000000000000000000000000000000000000000000005f52603160045260245ffdfea2646970667358221220d8bc66bb32b542fa7e5c7691ee9ed80128a9117278389882304a38a1cb499a2364736f6c63430008140033",
  "immutableReferences": {},
  "source": "// SPDX-License-Identifier: MIT\npragma solidity ^0.8.20;\n\nimport \"@openzeppelin/contracts/token/ERC721/ERC721.sol\";\nimport \"@openzeppelin/contracts/token/ERC721/extensions/ERC721Enumerable.sol\";\nimport \"@openzeppelin/contracts/access/Ownable.sol\";\nimport \"@openzeppelin/contracts/token/common/ERC2981.sol\";\n\ncontract EtherTea is ERC721, ERC721Enumerable, ERC2981, Ownable {\n    uint256 private _nextTokenId = 1;\n    string private _baseTokenURI;\n    uint256 public MAX_SUPPLY = 3000;\n    uint256 public constant MAX_PURCHASE = 2;\n\n    constructor()\n        ERC721(\"EtherTea\", \"ETT\")\n        Ownable(msg.sender)\n    {\n        _setDefaultRoyalty(msg.sender, 690);\n    }\n\n    function setBaseURI(string memory baseURI) public onlyOwner {\n        _baseTokenURI = baseURI;\n    }\n\n    function safeMint(address to) public onlyOwner {\n        _safeMint(to, _nextTokenId);\n    }\n\n    function mint(uint256 quantity) public {\n        require(\n            quantity <= MAX_PURCHASE,\n            \"Mint: tickets to mint exceeds max per transations\"\n        );\n        require(\n            quantity <= MAX_SUPPLY,\n            \"Mint: Purchase would exceed max supply\"\n        );\n        require(\n            _nextTokenId + quantity <= MAX_SUPPLY,\n            \"Mint: Purchase would exceed max supply\"\n        );\n        for (uint8 i = 0; i < quantity; i++) {\n            _safeMint(msg.sender, _nextTokenId);\n            _nextTokenId++;\n        }\n    }\n\n    // The following functions are overrides required by Solidity.\n    function _update(\n        address to,\n        uint256 tokenId,\n        address auth\n    ) internal override(ERC721, ERC721Enumerable) returns (address) {\n        return super._update(to, tokenId, auth);\n    }\n\n    function _increaseBalance(address account, uint128 value)\n        internal\n        override(ERC721, ERC721Enumerable)\n    {\n        super._increaseBalance(account, value);\n    }\n\n    function tokenURI(uint256 tokenId)\n        public\n        view\n        override(ERC721)\n        returns (string memory)\n    {\n        return\n            string(abi.encodePacked(_baseTokenURI, Strings.toString(tokenId)));\n    }\n\n    function supportsInterface(bytes4 interfaceId)\n        public\n        view\n        override(ERC721, ERC721Enumerable, ERC2981)\n        returns (bool)\n    {\n        return super.supportsInterface(interfaceId);\n    }\n}\n\n",
  "sourcePath": "/Users/jeanosorio/Repos/BeardedBaldies/bearded-baldies-contract/contracts/EtherTea.sol",
  "compiler": {
    "name": "solc",
    "version": "0.8.20+commit.a1b79de6.Emscripten.clang"
  },
  "schemaVersion": "3.4.16",
  "updatedAt": "2023-12-04T10:35:15.683Z",
  "networkType": "ethereum",
  "devdoc": {
    "errors": {
      "ERC2981InvalidDefaultRoyalty(uint256,uint256)": [
        {
          "details": "The default royalty set is invalid (eg. (numerator / denominator) >= 1)."
        }
      ],
      "ERC2981InvalidDefaultRoyaltyReceiver(address)": [
        {
          "details": "The default royalty receiver is invalid."
        }
      ],
      "ERC2981InvalidTokenRoyalty(uint256,uint256,uint256)": [
        {
          "details": "The royalty set for an specific `tokenId` is invalid (eg. (numerator / denominator) >= 1)."
        }
      ],
      "ERC2981InvalidTokenRoyaltyReceiver(uint256,address)": [
        {
          "details": "The royalty receiver for `tokenId` is invalid."
        }
      ],
      "ERC721EnumerableForbiddenBatchMint()": [
        {
          "details": "Batch mint is not allowed."
        }
      ],
      "ERC721IncorrectOwner(address,uint256,address)": [
        {
          "details": "Indicates an error related to the ownership over a particular token. Used in transfers.",
          "params": {
            "owner": "Address of the current owner of a token.",
            "sender": "Address whose tokens are being transferred.",
            "tokenId": "Identifier number of a token."
          }
        }
      ],
      "ERC721InsufficientApproval(address,uint256)": [
        {
          "details": "Indicates a failure with the `operator`s approval. Used in transfers.",
          "params": {
            "operator": "Address that may be allowed to operate on tokens without being their owner.",
            "tokenId": "Identifier number of a token."
          }
        }
      ],
      "ERC721InvalidApprover(address)": [
        {
          "details": "Indicates a failure with the `approver` of a token to be approved. Used in approvals.",
          "params": {
            "approver": "Address initiating an approval operation."
          }
        }
      ],
      "ERC721InvalidOperator(address)": [
        {
          "details": "Indicates a failure with the `operator` to be approved. Used in approvals.",
          "params": {
            "operator": "Address that may be allowed to operate on tokens without being their owner."
          }
        }
      ],
      "ERC721InvalidOwner(address)": [
        {
          "details": "Indicates that an address can't be an owner. For example, `address(0)` is a forbidden owner in EIP-20. Used in balance queries.",
          "params": {
            "owner": "Address of the current owner of a token."
          }
        }
      ],
      "ERC721InvalidReceiver(address)": [
        {
          "details": "Indicates a failure with the token `receiver`. Used in transfers.",
          "params": {
            "receiver": "Address to which tokens are being transferred."
          }
        }
      ],
      "ERC721InvalidSender(address)": [
        {
          "details": "Indicates a failure with the token `sender`. Used in transfers.",
          "params": {
            "sender": "Address whose tokens are being transferred."
          }
        }
      ],
      "ERC721NonexistentToken(uint256)": [
        {
          "details": "Indicates a `tokenId` whose `owner` is the zero address.",
          "params": {
            "tokenId": "Identifier number of a token."
          }
        }
      ],
      "ERC721OutOfBoundsIndex(address,uint256)": [
        {
          "details": "An `owner`'s token query was out of bounds for `index`. NOTE: The owner being `address(0)` indicates a global out of bounds index."
        }
      ],
      "OwnableInvalidOwner(address)": [
        {
          "details": "The owner is not a valid owner account. (eg. `address(0)`)"
        }
      ],
      "OwnableUnauthorizedAccount(address)": [
        {
          "details": "The caller account is not authorized to perform an operation."
        }
      ]
    },
    "events": {
      "Approval(address,address,uint256)": {
        "details": "Emitted when `owner` enables `approved` to manage the `tokenId` token."
      },
      "ApprovalForAll(address,address,bool)": {
        "details": "Emitted when `owner` enables or disables (`approved`) `operator` to manage all of its assets."
      },
      "Transfer(address,address,uint256)": {
        "details": "Emitted when `tokenId` token is transferred from `from` to `to`."
      }
    },
    "kind": "dev",
    "methods": {
      "approve(address,uint256)": {
        "details": "See {IERC721-approve}."
      },
      "balanceOf(address)": {
        "details": "See {IERC721-balanceOf}."
      },
      "getApproved(uint256)": {
        "details": "See {IERC721-getApproved}."
      },
      "isApprovedForAll(address,address)": {
        "details": "See {IERC721-isApprovedForAll}."
      },
      "name()": {
        "details": "See {IERC721Metadata-name}."
      },
      "owner()": {
        "details": "Returns the address of the current owner."
      },
      "ownerOf(uint256)": {
        "details": "See {IERC721-ownerOf}."
      },
      "renounceOwnership()": {
        "details": "Leaves the contract without owner. It will not be possible to call `onlyOwner` functions. Can only be called by the current owner. NOTE: Renouncing ownership will leave the contract without an owner, thereby disabling any functionality that is only available to the owner."
      },
      "royaltyInfo(uint256,uint256)": {
        "details": "Returns how much royalty is owed and to whom, based on a sale price that may be denominated in any unit of exchange. The royalty amount is denominated and should be paid in that same unit of exchange."
      },
      "safeTransferFrom(address,address,uint256)": {
        "details": "See {IERC721-safeTransferFrom}."
      },
      "safeTransferFrom(address,address,uint256,bytes)": {
        "details": "See {IERC721-safeTransferFrom}."
      },
      "setApprovalForAll(address,bool)": {
        "details": "See {IERC721-setApprovalForAll}."
      },
      "symbol()": {
        "details": "See {IERC721Metadata-symbol}."
      },
      "tokenByIndex(uint256)": {
        "details": "See {IERC721Enumerable-tokenByIndex}."
      },
      "tokenOfOwnerByIndex(address,uint256)": {
        "details": "See {IERC721Enumerable-tokenOfOwnerByIndex}."
      },
      "tokenURI(uint256)": {
        "details": "See {IERC721Metadata-tokenURI}."
      },
      "totalSupply()": {
        "details": "See {IERC721Enumerable-totalSupply}."
      },
      "transferFrom(address,address,uint256)": {
        "details": "See {IERC721-transferFrom}."
      },
      "transferOwnership(address)": {
        "details": "Transfers ownership of the contract to a new account (`newOwner`). Can only be called by the current owner."
      }
    },
    "version": 1
  },
  "userdoc": {
    "kind": "user",
    "methods": {},
    "version": 1
  }
}