{
  "contractName": "EtherTea",
  "abi": [
    {
      "inputs": [],
      "stateMutability": "nonpayable",
      "type": "constructor"
    },
    {
      "inputs": [
        {
          "internalType": "uint256",
          "name": "numerator",
          "type": "uint256"
        },
        {
          "internalType": "uint256",
          "name": "denominator",
          "type": "uint256"
        }
      ],
      "name": "ERC2981InvalidDefaultRoyalty",
      "type": "error"
    },
    {
      "inputs": [
        {
          "internalType": "address",
          "name": "receiver",
          "type": "address"
        }
      ],
      "name": "ERC2981InvalidDefaultRoyaltyReceiver",
      "type": "error"
    },
    {
      "inputs": [
        {
          "internalType": "uint256",
          "name": "tokenId",
          "type": "uint256"
        },
        {
          "internalType": "uint256",
          "name": "numerator",
          "type": "uint256"
        },
        {
          "internalType": "uint256",
          "name": "denominator",
          "type": "uint256"
        }
      ],
      "name": "ERC2981InvalidTokenRoyalty",
      "type": "error"
    },
    {
      "inputs": [
        {
          "internalType": "uint256",
          "name": "tokenId",
          "type": "uint256"
        },
        {
          "internalType": "address",
          "name": "receiver",
          "type": "address"
        }
      ],
      "name": "ERC2981InvalidTokenRoyaltyReceiver",
      "type": "error"
    },
    {
      "inputs": [],
      "name": "ERC721EnumerableForbiddenBatchMint",
      "type": "error"
    },
    {
      "inputs": [
        {
          "internalType": "address",
          "name": "sender",
          "type": "address"
        },
        {
          "internalType": "uint256",
          "name": "tokenId",
          "type": "uint256"
        },
        {
          "internalType": "address",
          "name": "owner",
          "type": "address"
        }
      ],
      "name": "ERC721IncorrectOwner",
      "type": "error"
    },
    {
      "inputs": [
        {
          "internalType": "address",
          "name": "operator",
          "type": "address"
        },
        {
          "internalType": "uint256",
          "name": "tokenId",
          "type": "uint256"
        }
      ],
      "name": "ERC721InsufficientApproval",
      "type": "error"
    },
    {
      "inputs": [
        {
          "internalType": "address",
          "name": "approver",
          "type": "address"
        }
      ],
      "name": "ERC721InvalidApprover",
      "type": "error"
    },
    {
      "inputs": [
        {
          "internalType": "address",
          "name": "operator",
          "type": "address"
        }
      ],
      "name": "ERC721InvalidOperator",
      "type": "error"
    },
    {
      "inputs": [
        {
          "internalType": "address",
          "name": "owner",
          "type": "address"
        }
      ],
      "name": "ERC721InvalidOwner",
      "type": "error"
    },
    {
      "inputs": [
        {
          "internalType": "address",
          "name": "receiver",
          "type": "address"
        }
      ],
      "name": "ERC721InvalidReceiver",
      "type": "error"
    },
    {
      "inputs": [
        {
          "internalType": "address",
          "name": "sender",
          "type": "address"
        }
      ],
      "name": "ERC721InvalidSender",
      "type": "error"
    },
    {
      "inputs": [
        {
          "internalType": "uint256",
          "name": "tokenId",
          "type": "uint256"
        }
      ],
      "name": "ERC721NonexistentToken",
      "type": "error"
    },
    {
      "inputs": [
        {
          "internalType": "address",
          "name": "owner",
          "type": "address"
        },
        {
          "internalType": "uint256",
          "name": "index",
          "type": "uint256"
        }
      ],
      "name": "ERC721OutOfBoundsIndex",
      "type": "error"
    },
    {
      "inputs": [
        {
          "internalType": "address",
          "name": "owner",
          "type": "address"
        }
      ],
      "name": "OwnableInvalidOwner",
      "type": "error"
    },
    {
      "inputs": [
        {
          "internalType": "address",
          "name": "account",
          "type": "address"
        }
      ],
      "name": "OwnableUnauthorizedAccount",
      "type": "error"
    },
    {
      "anonymous": false,
      "inputs": [
        {
          "indexed": true,
          "internalType": "address",
          "name": "owner",
          "type": "address"
        },
        {
          "indexed": true,
          "internalType": "address",
          "name": "approved",
          "type": "address"
        },
        {
          "indexed": true,
          "internalType": "uint256",
          "name": "tokenId",
          "type": "uint256"
        }
      ],
      "name": "Approval",
      "type": "event"
    },
    {
      "anonymous": false,
      "inputs": [
        {
          "indexed": true,
          "internalType": "address",
          "name": "owner",
          "type": "address"
        },
        {
          "indexed": true,
          "internalType": "address",
          "name": "operator",
          "type": "address"
        },
        {
          "indexed": false,
          "internalType": "bool",
          "name": "approved",
          "type": "bool"
        }
      ],
      "name": "ApprovalForAll",
      "type": "event"
    },
    {
      "anonymous": false,
      "inputs": [
        {
          "indexed": true,
          "internalType": "address",
          "name": "previousOwner",
          "type": "address"
        },
        {
          "indexed": true,
          "internalType": "address",
          "name": "newOwner",
          "type": "address"
        }
      ],
      "name": "OwnershipTransferred",
      "type": "event"
    },
    {
      "anonymous": false,
      "inputs": [
        {
          "indexed": true,
          "internalType": "address",
          "name": "from",
          "type": "address"
        },
        {
          "indexed": true,
          "internalType": "address",
          "name": "to",
          "type": "address"
        },
        {
          "indexed": true,
          "internalType": "uint256",
          "name": "tokenId",
          "type": "uint256"
        }
      ],
      "name": "Transfer",
      "type": "event"
    },
    {
      "inputs": [],
      "name": "MAX_PURCHASE",
      "outputs": [
        {
          "internalType": "uint256",
          "name": "",
          "type": "uint256"
        }
      ],
      "stateMutability": "view",
      "type": "function",
      "constant": true
    },
    {
      "inputs": [],
      "name": "MAX_SUPPLY",
      "outputs": [
        {
          "internalType": "uint256",
          "name": "",
          "type": "uint256"
        }
      ],
      "stateMutability": "view",
      "type": "function",
      "constant": true
    },
    {
      "inputs": [
        {
          "internalType": "address",
          "name": "to",
          "type": "address"
        },
        {
          "internalType": "uint256",
          "name": "tokenId",
          "type": "uint256"
        }
      ],
      "name": "approve",
      "outputs": [],
      "stateMutability": "nonpayable",
      "type": "function"
    },
    {
      "inputs": [
        {
          "internalType": "address",
          "name": "owner",
          "type": "address"
        }
      ],
      "name": "balanceOf",
      "outputs": [
        {
          "internalType": "uint256",
          "name": "",
          "type": "uint256"
        }
      ],
      "stateMutability": "view",
      "type": "function",
      "constant": true
    },
    {
      "inputs": [
        {
          "internalType": "uint256",
          "name": "tokenId",
          "type": "uint256"
        }
      ],
      "name": "getApproved",
      "outputs": [
        {
          "internalType": "address",
          "name": "",
          "type": "address"
        }
      ],
      "stateMutability": "view",
      "type": "function",
      "constant": true
    },
    {
      "inputs": [
        {
          "internalType": "address",
          "name": "owner",
          "type": "address"
        },
        {
          "internalType": "address",
          "name": "operator",
          "type": "address"
        }
      ],
      "name": "isApprovedForAll",
      "outputs": [
        {
          "internalType": "bool",
          "name": "",
          "type": "bool"
        }
      ],
      "stateMutability": "view",
      "type": "function",
      "constant": true
    },
    {
      "inputs": [],
      "name": "name",
      "outputs": [
        {
          "internalType": "string",
          "name": "",
          "type": "string"
        }
      ],
      "stateMutability": "view",
      "type": "function",
      "constant": true
    },
    {
      "inputs": [],
      "name": "owner",
      "outputs": [
        {
          "internalType": "address",
          "name": "",
          "type": "address"
        }
      ],
      "stateMutability": "view",
      "type": "function",
      "constant": true
    },
    {
      "inputs": [
        {
          "internalType": "uint256",
          "name": "tokenId",
          "type": "uint256"
        }
      ],
      "name": "ownerOf",
      "outputs": [
        {
          "internalType": "address",
          "name": "",
          "type": "address"
        }
      ],
      "stateMutability": "view",
      "type": "function",
      "constant": true
    },
    {
      "inputs": [],
      "name": "renounceOwnership",
      "outputs": [],
      "stateMutability": "nonpayable",
      "type": "function"
    },
    {
      "inputs": [
        {
          "internalType": "uint256",
          "name": "tokenId",
          "type": "uint256"
        },
        {
          "internalType": "uint256",
          "name": "salePrice",
          "type": "uint256"
        }
      ],
      "name": "royaltyInfo",
      "outputs": [
        {
          "internalType": "address",
          "name": "",
          "type": "address"
        },
        {
          "internalType": "uint256",
          "name": "",
          "type": "uint256"
        }
      ],
      "stateMutability": "view",
      "type": "function",
      "constant": true
    },
    {
      "inputs": [
        {
          "internalType": "address",
          "name": "from",
          "type": "address"
        },
        {
          "internalType": "address",
          "name": "to",
          "type": "address"
        },
        {
          "internalType": "uint256",
          "name": "tokenId",
          "type": "uint256"
        }
      ],
      "name": "safeTransferFrom",
      "outputs": [],
      "stateMutability": "nonpayable",
      "type": "function"
    },
    {
      "inputs": [
        {
          "internalType": "address",
          "name": "from",
          "type": "address"
        },
        {
          "internalType": "address",
          "name": "to",
          "type": "address"
        },
        {
          "internalType": "uint256",
          "name": "tokenId",
          "type": "uint256"
        },
        {
          "internalType": "bytes",
          "name": "data",
          "type": "bytes"
        }
      ],
      "name": "safeTransferFrom",
      "outputs": [],
      "stateMutability": "nonpayable",
      "type": "function"
    },
    {
      "inputs": [
        {
          "internalType": "address",
          "name": "operator",
          "type": "address"
        },
        {
          "internalType": "bool",
          "name": "approved",
          "type": "bool"
        }
      ],
      "name": "setApprovalForAll",
      "outputs": [],
      "stateMutability": "nonpayable",
      "type": "function"
    },
    {
      "inputs": [],
      "name": "symbol",
      "outputs": [
        {
          "internalType": "string",
          "name": "",
          "type": "string"
        }
      ],
      "stateMutability": "view",
      "type": "function",
      "constant": true
    },
    {
      "inputs": [
        {
          "internalType": "uint256",
          "name": "index",
          "type": "uint256"
        }
      ],
      "name": "tokenByIndex",
      "outputs": [
        {
          "internalType": "uint256",
          "name": "",
          "type": "uint256"
        }
      ],
      "stateMutability": "view",
      "type": "function",
      "constant": true
    },
    {
      "inputs": [
        {
          "internalType": "address",
          "name": "owner",
          "type": "address"
        },
        {
          "internalType": "uint256",
          "name": "index",
          "type": "uint256"
        }
      ],
      "name": "tokenOfOwnerByIndex",
      "outputs": [
        {
          "internalType": "uint256",
          "name": "",
          "type": "uint256"
        }
      ],
      "stateMutability": "view",
      "type": "function",
      "constant": true
    },
    {
      "inputs": [],
      "name": "totalSupply",
      "outputs": [
        {
          "internalType": "uint256",
          "name": "",
          "type": "uint256"
        }
      ],
      "stateMutability": "view",
      "type": "function",
      "constant": true
    },
    {
      "inputs": [
        {
          "internalType": "address",
          "name": "from",
          "type": "address"
        },
        {
          "internalType": "address",
          "name": "to",
          "type": "address"
        },
        {
          "internalType": "uint256",
          "name": "tokenId",
          "type": "uint256"
        }
      ],
      "name": "transferFrom",
      "outputs": [],
      "stateMutability": "nonpayable",
      "type": "function"
    },
    {
      "inputs": [
        {
          "internalType": "address",
          "name": "newOwner",
          "type": "address"
        }
      ],
      "name": "transferOwnership",
      "outputs": [],
      "stateMutability": "nonpayable",
      "type": "function"
    },
    {
      "inputs": [
        {
          "internalType": "string",
          "name": "baseURI",
          "type": "string"
        }
      ],
      "name": "setBaseURI",
      "outputs": [],
      "stateMutability": "nonpayable",
      "type": "function"
    },
    {
      "inputs": [
        {
          "internalType": "address",
          "name": "to",
          "type": "address"
        }
      ],
      "name": "safeMint",
      "outputs": [],
      "stateMutability": "nonpayable",
      "type": "function"
    },
    {
      "inputs": [
        {
          "internalType": "uint256",
          "name": "quantity",
          "type": "uint256"
        }
      ],
      "name": "mint",
      "outputs": [],
      "stateMutability": "nonpayable",
      "type": "function"
    },
    {
      "inputs": [
        {
          "internalType": "uint256",
          "name": "tokenId",
          "type": "uint256"
        }
      ],
      "name": "tokenURI",
      "outputs": [
        {
          "internalType": "string",
          "name": "",
          "type": "string"
        }
      ],
      "stateMutability": "view",
      "type": "function",
      "constant": true
    },
    {
      "inputs": [
        {
          "internalType": "bytes4",
          "name": "interfaceId",
          "type": "bytes4"
        }
      ],
      "name": "supportsInterface",
      "outputs": [
        {
          "internalType": "bool",
          "name": "",
          "type": "bool"
        }
      ],
      "stateMutability": "view",
      "type": "function",
      "constant": true
    }
  ],
  "bytecode": "0x6080604052610bb8600f5534801562000016575f80fd5b50336040518060400160405280600881526020017f45746865725465610000000000000000000000000000000000000000000000008152506040518060400160405280600381526020017f4554540000000000000000000000000000000000000000000000000000000000815250815f908162000094919062000621565b508060019081620000a6919062000621565b5050505f73ffffffffffffffffffffffffffffffffffffffff168173ffffffffffffffffffffffffffffffffffffffff16036200011c575f6040517f1e4fbdf700000000000000000000000000000000000000000000000000000000815260040162000113919062000748565b60405180910390fd5b6200012d816200014860201b60201c565b5062000142336102b26200020b60201b60201c565b620007ee565b5f600c5f9054906101000a900473ffffffffffffffffffffffffffffffffffffffff16905081600c5f6101000a81548173ffffffffffffffffffffffffffffffffffffffff021916908373ffffffffffffffffffffffffffffffffffffffff1602179055508173ffffffffffffffffffffffffffffffffffffffff168173ffffffffffffffffffffffffffffffffffffffff167f8be0079c531659141344cd1fd0a4f28419497f9722a3daafe3b4186f6b6457e060405160405180910390a35050565b5f6200021c620003b460201b60201c565b6bffffffffffffffffffffffff16905080826bffffffffffffffffffffffff161115620002845781816040517f6f483d090000000000000000000000000000000000000000000000000000000081526004016200027b929190620007c3565b60405180910390fd5b5f73ffffffffffffffffffffffffffffffffffffffff168373ffffffffffffffffffffffffffffffffffffffff1603620002f7575f6040517fb6d9900a000000000000000000000000000000000000000000000000000000008152600401620002ee919062000748565b60405180910390fd5b60405180604001604052808473ffffffffffffffffffffffffffffffffffffffff168152602001836bffffffffffffffffffffffff16815250600a5f820151815f015f6101000a81548173ffffffffffffffffffffffffffffffffffffffff021916908373ffffffffffffffffffffffffffffffffffffffff1602179055506020820151815f0160146101000a8154816bffffffffffffffffffffffff02191690836bffffffffffffffffffffffff160217905550905050505050565b5f612710905090565b5f81519050919050565b7f4e487b71000000000000000000000000000000000000000000000000000000005f52604160045260245ffd5b7f4e487b71000000000000000000000000000000000000000000000000000000005f52602260045260245ffd5b5f60028204905060018216806200043957607f821691505b6020821081036200044f576200044e620003f4565b5b50919050565b5f819050815f5260205f209050919050565b5f6020601f8301049050919050565b5f82821b905092915050565b5f60088302620004b37fffffffffffffffffffffffffffffffffffffffffffffffffffffffffffffffff8262000476565b620004bf868362000476565b95508019841693508086168417925050509392505050565b5f819050919050565b5f819050919050565b5f6200050962000503620004fd84620004d7565b620004e0565b620004d7565b9050919050565b5f819050919050565b6200052483620004e9565b6200053c620005338262000510565b84845462000482565b825550505050565b5f90565b6200055262000544565b6200055f81848462000519565b505050565b5b8181101562000586576200057a5f8262000548565b60018101905062000565565b5050565b601f821115620005d5576200059f8162000455565b620005aa8462000467565b81016020851015620005ba578190505b620005d2620005c98562000467565b83018262000564565b50505b505050565b5f82821c905092915050565b5f620005f75f1984600802620005da565b1980831691505092915050565b5f620006118383620005e6565b9150826002028217905092915050565b6200062c82620003bd565b67ffffffffffffffff811115620006485762000647620003c7565b5b62000654825462000421565b620006618282856200058a565b5f60209050601f83116001811462000697575f841562000682578287015190505b6200068e858262000604565b865550620006fd565b601f198416620006a78662000455565b5f5b82811015620006d057848901518255600182019150602085019450602081019050620006a9565b86831015620006f05784890151620006ec601f891682620005e6565b8355505b6001600288020188555050505b505050505050565b5f73ffffffffffffffffffffffffffffffffffffffff82169050919050565b5f620007308262000705565b9050919050565b620007428162000724565b82525050565b5f6020820190506200075d5f83018462000737565b92915050565b5f6bffffffffffffffffffffffff82169050919050565b5f6200079a620007946200078e8462000763565b620004e0565b620004d7565b9050919050565b620007ac816200077a565b82525050565b620007bd81620004d7565b82525050565b5f604082019050620007d85f830185620007a1565b620007e76020830184620007b2565b9392505050565b61317880620007fc5f395ff3fe608060405234801561000f575f80fd5b5060043610610171575f3560e01c806355f804b3116100dc57806395d89b4111610095578063b88d4fde1161006f578063b88d4fde14610448578063c87b56dd14610464578063e985e9c514610494578063f2fde38b146104c457610171565b806395d89b41146103f2578063a0712d6814610410578063a22cb4651461042c57610171565b806355f804b3146103305780636352211e1461034c57806370a082311461037c5780637146bd08146103ac578063715018a6146103ca5780638da5cb5b146103d457610171565b80632a55205a1161012e5780632a55205a146102495780632f745c591461027a57806332cb6b0c146102aa57806340d097c3146102c857806342842e0e146102e45780634f6ccce71461030057610171565b806301ffc9a71461017557806306fdde03146101a5578063081812fc146101c3578063095ea7b3146101f357806318160ddd1461020f57806323b872dd1461022d575b5f80fd5b61018f600480360381019061018a9190612305565b6104e0565b60405161019c919061234a565b60405180910390f35b6101ad6104f1565b6040516101ba91906123ed565b60405180910390f35b6101dd60048036038101906101d89190612440565b610580565b6040516101ea91906124aa565b60405180910390f35b61020d600480360381019061020891906124ed565b61059b565b005b6102176105b1565b604051610224919061253a565b60405180910390f35b61024760048036038101906102429190612553565b6105bd565b005b610263600480360381019061025e91906125a3565b6106bc565b6040516102719291906125e1565b60405180910390f35b610294600480360381019061028f91906124ed565b610898565b6040516102a1919061253a565b60405180910390f35b6102b261093c565b6040516102bf919061253a565b60405180910390f35b6102e260048036038101906102dd9190612608565b610942565b005b6102fe60048036038101906102f99190612553565b610971565b005b61031a60048036038101906103159190612440565b610990565b604051610327919061253a565b60405180910390f35b61034a6004803603810190610345919061275f565b610a02565b005b61036660048036038101906103619190612440565b610a1d565b60405161037391906124aa565b60405180910390f35b61039660048036038101906103919190612608565b610a2e565b6040516103a3919061253a565b60405180910390f35b6103b4610ae4565b6040516103c1919061253a565b60405180910390f35b6103d2610ae9565b005b6103dc610afc565b6040516103e991906124aa565b60405180910390f35b6103fa610b24565b60405161040791906123ed565b60405180910390f35b61042a60048036038101906104259190612440565b610bb4565b005b610446600480360381019061044191906127d0565b610cd7565b005b610462600480360381019061045d91906128ac565b610ced565b005b61047e60048036038101906104799190612440565b610d0a565b60405161048b91906123ed565b60405180910390f35b6104ae60048036038101906104a9919061292c565b610d3e565b6040516104bb919061234a565b60405180910390f35b6104de60048036038101906104d99190612608565b610dcc565b005b5f6104ea82610e50565b9050919050565b60605f80546104ff90612997565b80601f016020809104026020016040519081016040528092919081815260200182805461052b90612997565b80156105765780601f1061054d57610100808354040283529160200191610576565b820191905f5260205f20905b81548152906001019060200180831161055957829003601f168201915b5050505050905090565b5f61058a82610ec9565b5061059482610f4f565b9050919050565b6105ad82826105a8610f88565b610f8f565b5050565b5f600880549050905090565b5f73ffffffffffffffffffffffffffffffffffffffff168273ffffffffffffffffffffffffffffffffffffffff160361062d575f6040517f64a0ae9200000000000000000000000000000000000000000000000000000000815260040161062491906124aa565b60405180910390fd5b5f610640838361063b610f88565b610fa1565b90508373ffffffffffffffffffffffffffffffffffffffff168173ffffffffffffffffffffffffffffffffffffffff16146106b6578382826040517f64283d7b0000000000000000000000000000000000000000000000000000000081526004016106ad939291906129c7565b60405180910390fd5b50505050565b5f805f600b5f8681526020019081526020015f206040518060400160405290815f82015f9054906101000a900473ffffffffffffffffffffffffffffffffffffffff1673ffffffffffffffffffffffffffffffffffffffff1673ffffffffffffffffffffffffffffffffffffffff1681526020015f820160149054906101000a90046bffffffffffffffffffffffff166bffffffffffffffffffffffff166bffffffffffffffffffffffff168152505090505f73ffffffffffffffffffffffffffffffffffffffff16815f015173ffffffffffffffffffffffffffffffffffffffff160361084557600a6040518060400160405290815f82015f9054906101000a900473ffffffffffffffffffffffffffffffffffffffff1673ffffffffffffffffffffffffffffffffffffffff1673ffffffffffffffffffffffffffffffffffffffff1681526020015f820160149054906101000a90046bffffffffffffffffffffffff166bffffffffffffffffffffffff166bffffffffffffffffffffffff168152505090505b5f61084e610fb6565b6bffffffffffffffffffffffff1682602001516bffffffffffffffffffffffff168661087a9190612a29565b6108849190612a97565b9050815f0151819350935050509250929050565b5f6108a283610a2e565b82106108e75782826040517fa57d13dc0000000000000000000000000000000000000000000000000000000081526004016108de9291906125e1565b60405180910390fd5b60065f8473ffffffffffffffffffffffffffffffffffffffff1673ffffffffffffffffffffffffffffffffffffffff1681526020019081526020015f205f8381526020019081526020015f2054905092915050565b600f5481565b61094a610fbf565b5f600d5f81548092919061095d90612ac7565b91905055905061096d8282611046565b5050565b61098b83838360405180602001604052805f815250610ced565b505050565b5f6109996105b1565b82106109de575f826040517fa57d13dc0000000000000000000000000000000000000000000000000000000081526004016109d59291906125e1565b60405180910390fd5b600882815481106109f2576109f1612b0e565b5b905f5260205f2001549050919050565b610a0a610fbf565b80600e9081610a199190612cd8565b5050565b5f610a2782610ec9565b9050919050565b5f8073ffffffffffffffffffffffffffffffffffffffff168273ffffffffffffffffffffffffffffffffffffffff1603610a9f575f6040517f89c62b64000000000000000000000000000000000000000000000000000000008152600401610a9691906124aa565b60405180910390fd5b60035f8373ffffffffffffffffffffffffffffffffffffffff1673ffffffffffffffffffffffffffffffffffffffff1681526020019081526020015f20549050919050565b600281565b610af1610fbf565b610afa5f611063565b565b5f600c5f9054906101000a900473ffffffffffffffffffffffffffffffffffffffff16905090565b606060018054610b3390612997565b80601f0160208091040260200160405190810160405280929190818152602001828054610b5f90612997565b8015610baa5780601f10610b8157610100808354040283529160200191610baa565b820191905f5260205f20905b815481529060010190602001808311610b8d57829003601f168201915b5050505050905090565b6002811115610bf8576040517f08c379a0000000000000000000000000000000000000000000000000000000008152600401610bef90612e17565b60405180910390fd5b600f54811115610c3d576040517f08c379a0000000000000000000000000000000000000000000000000000000008152600401610c3490612ea5565b60405180910390fd5b600f5481600d54610c4e9190612ec3565b1115610c8f576040517f08c379a0000000000000000000000000000000000000000000000000000000008152600401610c8690612ea5565b60405180910390fd5b5f5b818160ff161015610cd3575f600d5f815480929190610caf90612ac7565b919050559050610cbf3382611046565b508080610ccb90612f02565b915050610c91565b5050565b610ce9610ce2610f88565b8383611126565b5050565b610cf88484846105bd565b610d048484848461128f565b50505050565b6060600e610d1783611441565b604051602001610d28929190612fe4565b6040516020818303038152906040529050919050565b5f60055f8473ffffffffffffffffffffffffffffffffffffffff1673ffffffffffffffffffffffffffffffffffffffff1681526020019081526020015f205f8373ffffffffffffffffffffffffffffffffffffffff1673ffffffffffffffffffffffffffffffffffffffff1681526020019081526020015f205f9054906101000a900460ff16905092915050565b610dd4610fbf565b5f73ffffffffffffffffffffffffffffffffffffffff168173ffffffffffffffffffffffffffffffffffffffff1603610e44575f6040517f1e4fbdf7000000000000000000000000000000000000000000000000000000008152600401610e3b91906124aa565b60405180910390fd5b610e4d81611063565b50565b5f7f2a55205a000000000000000000000000000000000000000000000000000000007bffffffffffffffffffffffffffffffffffffffffffffffffffffffff1916827bffffffffffffffffffffffffffffffffffffffffffffffffffffffff19161480610ec25750610ec18261150b565b5b9050919050565b5f80610ed483611584565b90505f73ffffffffffffffffffffffffffffffffffffffff168173ffffffffffffffffffffffffffffffffffffffff1603610f4657826040517f7e273289000000000000000000000000000000000000000000000000000000008152600401610f3d919061253a565b60405180910390fd5b80915050919050565b5f60045f8381526020019081526020015f205f9054906101000a900473ffffffffffffffffffffffffffffffffffffffff169050919050565b5f33905090565b610f9c83838360016115bd565b505050565b5f610fad84848461177c565b90509392505050565b5f612710905090565b610fc7610f88565b73ffffffffffffffffffffffffffffffffffffffff16610fe5610afc565b73ffffffffffffffffffffffffffffffffffffffff161461104457611008610f88565b6040517f118cdaa700000000000000000000000000000000000000000000000000000000815260040161103b91906124aa565b60405180910390fd5b565b61105f828260405180602001604052805f815250611896565b5050565b5f600c5f9054906101000a900473ffffffffffffffffffffffffffffffffffffffff16905081600c5f6101000a81548173ffffffffffffffffffffffffffffffffffffffff021916908373ffffffffffffffffffffffffffffffffffffffff1602179055508173ffffffffffffffffffffffffffffffffffffffff168173ffffffffffffffffffffffffffffffffffffffff167f8be0079c531659141344cd1fd0a4f28419497f9722a3daafe3b4186f6b6457e060405160405180910390a35050565b5f73ffffffffffffffffffffffffffffffffffffffff168273ffffffffffffffffffffffffffffffffffffffff160361119657816040517f5b08ba1800000000000000000000000000000000000000000000000000000000815260040161118d91906124aa565b60405180910390fd5b8060055f8573ffffffffffffffffffffffffffffffffffffffff1673ffffffffffffffffffffffffffffffffffffffff1681526020019081526020015f205f8473ffffffffffffffffffffffffffffffffffffffff1673ffffffffffffffffffffffffffffffffffffffff1681526020019081526020015f205f6101000a81548160ff0219169083151502179055508173ffffffffffffffffffffffffffffffffffffffff168373ffffffffffffffffffffffffffffffffffffffff167f17307eab39ab6107e8899845ad3d59bd9653f200f220920489ca2b5937696c3183604051611282919061234a565b60405180910390a3505050565b5f8373ffffffffffffffffffffffffffffffffffffffff163b111561143b578273ffffffffffffffffffffffffffffffffffffffff1663150b7a026112d2610f88565b8685856040518563ffffffff1660e01b81526004016112f49493929190613059565b6020604051808303815f875af192505050801561132f57506040513d601f19601f8201168201806040525081019061132c91906130b7565b60015b6113b0573d805f811461135d576040519150601f19603f3d011682016040523d82523d5f602084013e611362565b606091505b505f8151036113a857836040517f64a0ae9200000000000000000000000000000000000000000000000000000000815260040161139f91906124aa565b60405180910390fd5b805181602001fd5b63150b7a0260e01b7bffffffffffffffffffffffffffffffffffffffffffffffffffffffff1916817bffffffffffffffffffffffffffffffffffffffffffffffffffffffff19161461143957836040517f64a0ae9200000000000000000000000000000000000000000000000000000000815260040161143091906124aa565b60405180910390fd5b505b50505050565b60605f600161144f846118b1565b0190505f8167ffffffffffffffff81111561146d5761146c61263b565b5b6040519080825280601f01601f19166020018201604052801561149f5781602001600182028036833780820191505090505b5090505f82602001820190505b600115611500578080600190039150507f3031323334353637383961626364656600000000000000000000000000000000600a86061a8153600a85816114f5576114f4612a6a565b5b0494505f85036114ac575b819350505050919050565b5f7f780e9d63000000000000000000000000000000000000000000000000000000007bffffffffffffffffffffffffffffffffffffffffffffffffffffffff1916827bffffffffffffffffffffffffffffffffffffffffffffffffffffffff1916148061157d575061157c82611a02565b5b9050919050565b5f60025f8381526020019081526020015f205f9054906101000a900473ffffffffffffffffffffffffffffffffffffffff169050919050565b80806115f557505f73ffffffffffffffffffffffffffffffffffffffff168273ffffffffffffffffffffffffffffffffffffffff1614155b15611727575f61160484610ec9565b90505f73ffffffffffffffffffffffffffffffffffffffff168373ffffffffffffffffffffffffffffffffffffffff161415801561166e57508273ffffffffffffffffffffffffffffffffffffffff168173ffffffffffffffffffffffffffffffffffffffff1614155b8015611681575061167f8184610d3e565b155b156116c357826040517fa9fbf51f0000000000000000000000000000000000000000000000000000000081526004016116ba91906124aa565b60405180910390fd5b811561172557838573ffffffffffffffffffffffffffffffffffffffff168273ffffffffffffffffffffffffffffffffffffffff167f8c5be1e5ebec7d5bd14f71427d1e84f3dd0314c0f7b2291e5b200ac8c7c3b92560405160405180910390a45b505b8360045f8581526020019081526020015f205f6101000a81548173ffffffffffffffffffffffffffffffffffffffff021916908373ffffffffffffffffffffffffffffffffffffffff16021790555050505050565b5f80611789858585611ae3565b90505f73ffffffffffffffffffffffffffffffffffffffff168173ffffffffffffffffffffffffffffffffffffffff16036117cc576117c784611cee565b61180b565b8473ffffffffffffffffffffffffffffffffffffffff168173ffffffffffffffffffffffffffffffffffffffff161461180a576118098185611d32565b5b5b5f73ffffffffffffffffffffffffffffffffffffffff168573ffffffffffffffffffffffffffffffffffffffff160361184c5761184784611e7c565b61188b565b8473ffffffffffffffffffffffffffffffffffffffff168173ffffffffffffffffffffffffffffffffffffffff161461188a576118898585611f3c565b5b5b809150509392505050565b6118a08383611fc0565b6118ac5f84848461128f565b505050565b5f805f90507a184f03e93ff9f4daa797ed6e38ed64bf6a1f010000000000000000831061190d577a184f03e93ff9f4daa797ed6e38ed64bf6a1f010000000000000000838161190357611902612a6a565b5b0492506040810190505b6d04ee2d6d415b85acef8100000000831061194a576d04ee2d6d415b85acef810000000083816119405761193f612a6a565b5b0492506020810190505b662386f26fc10000831061197957662386f26fc10000838161196f5761196e612a6a565b5b0492506010810190505b6305f5e10083106119a2576305f5e100838161199857611997612a6a565b5b0492506008810190505b61271083106119c75761271083816119bd576119bc612a6a565b5b0492506004810190505b606483106119ea57606483816119e0576119df612a6a565b5b0492506002810190505b600a83106119f9576001810190505b80915050919050565b5f7f80ac58cd000000000000000000000000000000000000000000000000000000007bffffffffffffffffffffffffffffffffffffffffffffffffffffffff1916827bffffffffffffffffffffffffffffffffffffffffffffffffffffffff19161480611acc57507f5b5e139f000000000000000000000000000000000000000000000000000000007bffffffffffffffffffffffffffffffffffffffffffffffffffffffff1916827bffffffffffffffffffffffffffffffffffffffffffffffffffffffff1916145b80611adc5750611adb826120b3565b5b9050919050565b5f80611aee84611584565b90505f73ffffffffffffffffffffffffffffffffffffffff168373ffffffffffffffffffffffffffffffffffffffff1614611b2f57611b2e81848661211c565b5b5f73ffffffffffffffffffffffffffffffffffffffff168173ffffffffffffffffffffffffffffffffffffffff1614611bba57611b6e5f855f806115bd565b600160035f8373ffffffffffffffffffffffffffffffffffffffff1673ffffffffffffffffffffffffffffffffffffffff1681526020019081526020015f205f82825403925050819055505b5f73ffffffffffffffffffffffffffffffffffffffff168573ffffffffffffffffffffffffffffffffffffffff1614611c3957600160035f8773ffffffffffffffffffffffffffffffffffffffff1673ffffffffffffffffffffffffffffffffffffffff1681526020019081526020015f205f82825401925050819055505b8460025f8681526020019081526020015f205f6101000a81548173ffffffffffffffffffffffffffffffffffffffff021916908373ffffffffffffffffffffffffffffffffffffffff160217905550838573ffffffffffffffffffffffffffffffffffffffff168273ffffffffffffffffffffffffffffffffffffffff167fddf252ad1be2c89b69c2b068fc378daa952ba7f163c4a11628f55a4df523b3ef60405160405180910390a4809150509392505050565b60088054905060095f8381526020019081526020015f2081905550600881908060018154018082558091505060019003905f5260205f20015f909190919091505550565b5f611d3c83610a2e565b90505f60075f8481526020019081526020015f20549050818114611e13575f60065f8673ffffffffffffffffffffffffffffffffffffffff1673ffffffffffffffffffffffffffffffffffffffff1681526020019081526020015f205f8481526020019081526020015f205490508060065f8773ffffffffffffffffffffffffffffffffffffffff1673ffffffffffffffffffffffffffffffffffffffff1681526020019081526020015f205f8481526020019081526020015f20819055508160075f8381526020019081526020015f2081905550505b60075f8481526020019081526020015f205f905560065f8573ffffffffffffffffffffffffffffffffffffffff1673ffffffffffffffffffffffffffffffffffffffff1681526020019081526020015f205f8381526020019081526020015f205f905550505050565b5f6001600880549050611e8f91906130e2565b90505f60095f8481526020019081526020015f205490505f60088381548110611ebb57611eba612b0e565b5b905f5260205f20015490508060088381548110611edb57611eda612b0e565b5b905f5260205f2001819055508160095f8381526020019081526020015f208190555060095f8581526020019081526020015f205f90556008805480611f2357611f22613115565b5b600190038181905f5260205f20015f9055905550505050565b5f6001611f4884610a2e565b611f5291906130e2565b90508160065f8573ffffffffffffffffffffffffffffffffffffffff1673ffffffffffffffffffffffffffffffffffffffff1681526020019081526020015f205f8381526020019081526020015f20819055508060075f8481526020019081526020015f2081905550505050565b5f73ffffffffffffffffffffffffffffffffffffffff168273ffffffffffffffffffffffffffffffffffffffff1603612030575f6040517f64a0ae9200000000000000000000000000000000000000000000000000000000815260040161202791906124aa565b60405180910390fd5b5f61203c83835f610fa1565b90505f73ffffffffffffffffffffffffffffffffffffffff168173ffffffffffffffffffffffffffffffffffffffff16146120ae575f6040517f73c6ac6e0000000000000000000000000000000000000000000000000000000081526004016120a591906124aa565b60405180910390fd5b505050565b5f7f01ffc9a7000000000000000000000000000000000000000000000000000000007bffffffffffffffffffffffffffffffffffffffffffffffffffffffff1916827bffffffffffffffffffffffffffffffffffffffffffffffffffffffff1916149050919050565b6121278383836121df565b6121da575f73ffffffffffffffffffffffffffffffffffffffff168373ffffffffffffffffffffffffffffffffffffffff160361219b57806040517f7e273289000000000000000000000000000000000000000000000000000000008152600401612192919061253a565b60405180910390fd5b81816040517f177e802f0000000000000000000000000000000000000000000000000000000081526004016121d19291906125e1565b60405180910390fd5b505050565b5f8073ffffffffffffffffffffffffffffffffffffffff168373ffffffffffffffffffffffffffffffffffffffff161415801561229657508273ffffffffffffffffffffffffffffffffffffffff168473ffffffffffffffffffffffffffffffffffffffff16148061225757506122568484610d3e565b5b8061229557508273ffffffffffffffffffffffffffffffffffffffff1661227d83610f4f565b73ffffffffffffffffffffffffffffffffffffffff16145b5b90509392505050565b5f604051905090565b5f80fd5b5f80fd5b5f7fffffffff0000000000000000000000000000000000000000000000000000000082169050919050565b6122e4816122b0565b81146122ee575f80fd5b50565b5f813590506122ff816122db565b92915050565b5f6020828403121561231a576123196122a8565b5b5f612327848285016122f1565b91505092915050565b5f8115159050919050565b61234481612330565b82525050565b5f60208201905061235d5f83018461233b565b92915050565b5f81519050919050565b5f82825260208201905092915050565b5f5b8381101561239a57808201518184015260208101905061237f565b5f8484015250505050565b5f601f19601f8301169050919050565b5f6123bf82612363565b6123c9818561236d565b93506123d981856020860161237d565b6123e2816123a5565b840191505092915050565b5f6020820190508181035f83015261240581846123b5565b905092915050565b5f819050919050565b61241f8161240d565b8114612429575f80fd5b50565b5f8135905061243a81612416565b92915050565b5f60208284031215612455576124546122a8565b5b5f6124628482850161242c565b91505092915050565b5f73ffffffffffffffffffffffffffffffffffffffff82169050919050565b5f6124948261246b565b9050919050565b6124a48161248a565b82525050565b5f6020820190506124bd5f83018461249b565b92915050565b6124cc8161248a565b81146124d6575f80fd5b50565b5f813590506124e7816124c3565b92915050565b5f8060408385031215612503576125026122a8565b5b5f612510858286016124d9565b92505060206125218582860161242c565b9150509250929050565b6125348161240d565b82525050565b5f60208201905061254d5f83018461252b565b92915050565b5f805f6060848603121561256a576125696122a8565b5b5f612577868287016124d9565b9350506020612588868287016124d9565b92505060406125998682870161242c565b9150509250925092565b5f80604083850312156125b9576125b86122a8565b5b5f6125c68582860161242c565b92505060206125d78582860161242c565b9150509250929050565b5f6040820190506125f45f83018561249b565b612601602083018461252b565b9392505050565b5f6020828403121561261d5761261c6122a8565b5b5f61262a848285016124d9565b91505092915050565b5f80fd5b5f80fd5b7f4e487b71000000000000000000000000000000000000000000000000000000005f52604160045260245ffd5b612671826123a5565b810181811067ffffffffffffffff821117156126905761268f61263b565b5b80604052505050565b5f6126a261229f565b90506126ae8282612668565b919050565b5f67ffffffffffffffff8211156126cd576126cc61263b565b5b6126d6826123a5565b9050602081019050919050565b828183375f83830152505050565b5f6127036126fe846126b3565b612699565b90508281526020810184848401111561271f5761271e612637565b5b61272a8482856126e3565b509392505050565b5f82601f83011261274657612745612633565b5b81356127568482602086016126f1565b91505092915050565b5f60208284031215612774576127736122a8565b5b5f82013567ffffffffffffffff811115612791576127906122ac565b5b61279d84828501612732565b91505092915050565b6127af81612330565b81146127b9575f80fd5b50565b5f813590506127ca816127a6565b92915050565b5f80604083850312156127e6576127e56122a8565b5b5f6127f3858286016124d9565b9250506020612804858286016127bc565b9150509250929050565b5f67ffffffffffffffff8211156128285761282761263b565b5b612831826123a5565b9050602081019050919050565b5f61285061284b8461280e565b612699565b90508281526020810184848401111561286c5761286b612637565b5b6128778482856126e3565b509392505050565b5f82601f83011261289357612892612633565b5b81356128a384826020860161283e565b91505092915050565b5f805f80608085870312156128c4576128c36122a8565b5b5f6128d1878288016124d9565b94505060206128e2878288016124d9565b93505060406128f38782880161242c565b925050606085013567ffffffffffffffff811115612914576129136122ac565b5b6129208782880161287f565b91505092959194509250565b5f8060408385031215612942576129416122a8565b5b5f61294f858286016124d9565b9250506020612960858286016124d9565b9150509250929050565b7f4e487b71000000000000000000000000000000000000000000000000000000005f52602260045260245ffd5b5f60028204905060018216806129ae57607f821691505b6020821081036129c1576129c061296a565b5b50919050565b5f6060820190506129da5f83018661249b565b6129e7602083018561252b565b6129f4604083018461249b565b949350505050565b7f4e487b71000000000000000000000000000000000000000000000000000000005f52601160045260245ffd5b5f612a338261240d565b9150612a3e8361240d565b9250828202612a4c8161240d565b91508282048414831517612a6357612a626129fc565b5b5092915050565b7f4e487b71000000000000000000000000000000000000000000000000000000005f52601260045260245ffd5b5f612aa18261240d565b9150612aac8361240d565b925082612abc57612abb612a6a565b5b828204905092915050565b5f612ad18261240d565b91507fffffffffffffffffffffffffffffffffffffffffffffffffffffffffffffffff8203612b0357612b026129fc565b5b600182019050919050565b7f4e487b71000000000000000000000000000000000000000000000000000000005f52603260045260245ffd5b5f819050815f5260205f209050919050565b5f6020601f8301049050919050565b5f82821b905092915050565b5f60088302612b977fffffffffffffffffffffffffffffffffffffffffffffffffffffffffffffffff82612b5c565b612ba18683612b5c565b95508019841693508086168417925050509392505050565b5f819050919050565b5f612bdc612bd7612bd28461240d565b612bb9565b61240d565b9050919050565b5f819050919050565b612bf583612bc2565b612c09612c0182612be3565b848454612b68565b825550505050565b5f90565b612c1d612c11565b612c28818484612bec565b505050565b5b81811015612c4b57612c405f82612c15565b600181019050612c2e565b5050565b601f821115612c9057612c6181612b3b565b612c6a84612b4d565b81016020851015612c79578190505b612c8d612c8585612b4d565b830182612c2d565b50505b505050565b5f82821c905092915050565b5f612cb05f1984600802612c95565b1980831691505092915050565b5f612cc88383612ca1565b9150826002028217905092915050565b612ce182612363565b67ffffffffffffffff811115612cfa57612cf961263b565b5b612d048254612997565b612d0f828285612c4f565b5f60209050601f831160018114612d40575f8415612d2e578287015190505b612d388582612cbd565b865550612d9f565b601f198416612d4e86612b3b565b5f5b82811015612d7557848901518255600182019150602085019450602081019050612d50565b86831015612d925784890151612d8e601f891682612ca1565b8355505b6001600288020188555050505b505050505050565b7f4d696e743a207469636b65747320746f206d696e742065786365656473206d615f8201527f7820706572207472616e736174696f6e73000000000000000000000000000000602082015250565b5f612e0160318361236d565b9150612e0c82612da7565b604082019050919050565b5f6020820190508181035f830152612e2e81612df5565b9050919050565b7f4d696e743a20507572636861736520776f756c6420657863656564206d6178205f8201527f737570706c790000000000000000000000000000000000000000000000000000602082015250565b5f612e8f60268361236d565b9150612e9a82612e35565b604082019050919050565b5f6020820190508181035f830152612ebc81612e83565b9050919050565b5f612ecd8261240d565b9150612ed88361240d565b9250828201905080821115612ef057612eef6129fc565b5b92915050565b5f60ff82169050919050565b5f612f0c82612ef6565b915060ff8203612f1f57612f1e6129fc565b5b600182019050919050565b5f81905092915050565b5f8154612f4081612997565b612f4a8186612f2a565b9450600182165f8114612f645760018114612f7957612fab565b60ff1983168652811515820286019350612fab565b612f8285612b3b565b5f5b83811015612fa357815481890152600182019150602081019050612f84565b838801955050505b50505092915050565b5f612fbe82612363565b612fc88185612f2a565b9350612fd881856020860161237d565b80840191505092915050565b5f612fef8285612f34565b9150612ffb8284612fb4565b91508190509392505050565b5f81519050919050565b5f82825260208201905092915050565b5f61302b82613007565b6130358185613011565b935061304581856020860161237d565b61304e816123a5565b840191505092915050565b5f60808201905061306c5f83018761249b565b613079602083018661249b565b613086604083018561252b565b81810360608301526130988184613021565b905095945050505050565b5f815190506130b1816122db565b92915050565b5f602082840312156130cc576130cb6122a8565b5b5f6130d9848285016130a3565b91505092915050565b5f6130ec8261240d565b91506130f78361240d565b925082820390508181111561310f5761310e6129fc565b5b92915050565b7f4e487b71000000000000000000000000000000000000000000000000000000005f52603160045260245ffdfea26469706673582212206f7dd83865fede253a1cda7f750743e4c4af93095b50c58cf81139396cd1a6ef64736f6c63430008140033",
  "immutableReferences": {},
  "source": "// SPDX-License-Identifier: MIT\npragma solidity ^0.8.20;\n\nimport \"@openzeppelin/contracts/token/ERC721/ERC721.sol\";\nimport \"@openzeppelin/contracts/token/ERC721/extensions/ERC721Enumerable.sol\";\nimport \"@openzeppelin/contracts/access/Ownable.sol\";\nimport \"@openzeppelin/contracts/token/common/ERC2981.sol\";\n\ncontract EtherTea is ERC721, ERC721Enumerable, ERC2981, Ownable {\n    uint256 private _nextTokenId;\n    string private _baseTokenURI;\n    uint256 public MAX_SUPPLY = 3000;\n    uint256 public constant MAX_PURCHASE = 2;\n\n    constructor()\n        ERC721(\"EtherTea\", \"ETT\")\n        Ownable(msg.sender)\n    {\n        _setDefaultRoyalty(msg.sender, 690);\n    }\n\n    function setBaseURI(string memory baseURI) public onlyOwner {\n        _baseTokenURI = baseURI;\n    }\n\n    function safeMint(address to) public onlyOwner {\n        uint256 tokenId = _nextTokenId++;\n        _safeMint(to, tokenId);\n    }\n\n    function mint(uint256 quantity) public {\n        require(\n            quantity <= MAX_PURCHASE,\n            \"Mint: tickets to mint exceeds max per transations\"\n        );\n        require(\n            quantity <= MAX_SUPPLY,\n            \"Mint: Purchase would exceed max supply\"\n        );\n        require(\n            _nextTokenId + quantity <= MAX_SUPPLY,\n            \"Mint: Purchase would exceed max supply\"\n        );\n        for (uint8 i = 0; i < quantity; i++) {\n            uint256 tokenId = _nextTokenId++;\n            _safeMint(msg.sender, tokenId);\n        }\n    }\n\n    // The following functions are overrides required by Solidity.\n    function _update(\n        address to,\n        uint256 tokenId,\n        address auth\n    ) internal override(ERC721, ERC721Enumerable) returns (address) {\n        return super._update(to, tokenId, auth);\n    }\n\n    function _increaseBalance(address account, uint128 value)\n        internal\n        override(ERC721, ERC721Enumerable)\n    {\n        super._increaseBalance(account, value);\n    }\n\n    function tokenURI(uint256 tokenId)\n        public\n        view\n        override(ERC721)\n        returns (string memory)\n    {\n        return\n            string(abi.encodePacked(_baseTokenURI, Strings.toString(tokenId)));\n    }\n\n    function supportsInterface(bytes4 interfaceId)\n        public\n        view\n        override(ERC721, ERC721Enumerable, ERC2981)\n        returns (bool)\n    {\n        return super.supportsInterface(interfaceId);\n    }\n}\n\n",
  "sourcePath": "/Users/jeanosorio/Repos/BeardedBaldies/bearded-baldies-contract/contracts/EtherTea.sol",
  "compiler": {
    "name": "solc",
    "version": "0.8.20+commit.a1b79de6.Emscripten.clang"
  },
  "schemaVersion": "3.4.16",
  "updatedAt": "2023-12-01T07:06:39.813Z",
  "networkType": "ethereum",
  "devdoc": {
    "errors": {
      "ERC2981InvalidDefaultRoyalty(uint256,uint256)": [
        {
          "details": "The default royalty set is invalid (eg. (numerator / denominator) >= 1)."
        }
      ],
      "ERC2981InvalidDefaultRoyaltyReceiver(address)": [
        {
          "details": "The default royalty receiver is invalid."
        }
      ],
      "ERC2981InvalidTokenRoyalty(uint256,uint256,uint256)": [
        {
          "details": "The royalty set for an specific `tokenId` is invalid (eg. (numerator / denominator) >= 1)."
        }
      ],
      "ERC2981InvalidTokenRoyaltyReceiver(uint256,address)": [
        {
          "details": "The royalty receiver for `tokenId` is invalid."
        }
      ],
      "ERC721EnumerableForbiddenBatchMint()": [
        {
          "details": "Batch mint is not allowed."
        }
      ],
      "ERC721IncorrectOwner(address,uint256,address)": [
        {
          "details": "Indicates an error related to the ownership over a particular token. Used in transfers.",
          "params": {
            "owner": "Address of the current owner of a token.",
            "sender": "Address whose tokens are being transferred.",
            "tokenId": "Identifier number of a token."
          }
        }
      ],
      "ERC721InsufficientApproval(address,uint256)": [
        {
          "details": "Indicates a failure with the `operator`s approval. Used in transfers.",
          "params": {
            "operator": "Address that may be allowed to operate on tokens without being their owner.",
            "tokenId": "Identifier number of a token."
          }
        }
      ],
      "ERC721InvalidApprover(address)": [
        {
          "details": "Indicates a failure with the `approver` of a token to be approved. Used in approvals.",
          "params": {
            "approver": "Address initiating an approval operation."
          }
        }
      ],
      "ERC721InvalidOperator(address)": [
        {
          "details": "Indicates a failure with the `operator` to be approved. Used in approvals.",
          "params": {
            "operator": "Address that may be allowed to operate on tokens without being their owner."
          }
        }
      ],
      "ERC721InvalidOwner(address)": [
        {
          "details": "Indicates that an address can't be an owner. For example, `address(0)` is a forbidden owner in EIP-20. Used in balance queries.",
          "params": {
            "owner": "Address of the current owner of a token."
          }
        }
      ],
      "ERC721InvalidReceiver(address)": [
        {
          "details": "Indicates a failure with the token `receiver`. Used in transfers.",
          "params": {
            "receiver": "Address to which tokens are being transferred."
          }
        }
      ],
      "ERC721InvalidSender(address)": [
        {
          "details": "Indicates a failure with the token `sender`. Used in transfers.",
          "params": {
            "sender": "Address whose tokens are being transferred."
          }
        }
      ],
      "ERC721NonexistentToken(uint256)": [
        {
          "details": "Indicates a `tokenId` whose `owner` is the zero address.",
          "params": {
            "tokenId": "Identifier number of a token."
          }
        }
      ],
      "ERC721OutOfBoundsIndex(address,uint256)": [
        {
          "details": "An `owner`'s token query was out of bounds for `index`. NOTE: The owner being `address(0)` indicates a global out of bounds index."
        }
      ],
      "OwnableInvalidOwner(address)": [
        {
          "details": "The owner is not a valid owner account. (eg. `address(0)`)"
        }
      ],
      "OwnableUnauthorizedAccount(address)": [
        {
          "details": "The caller account is not authorized to perform an operation."
        }
      ]
    },
    "events": {
      "Approval(address,address,uint256)": {
        "details": "Emitted when `owner` enables `approved` to manage the `tokenId` token."
      },
      "ApprovalForAll(address,address,bool)": {
        "details": "Emitted when `owner` enables or disables (`approved`) `operator` to manage all of its assets."
      },
      "Transfer(address,address,uint256)": {
        "details": "Emitted when `tokenId` token is transferred from `from` to `to`."
      }
    },
    "kind": "dev",
    "methods": {
      "approve(address,uint256)": {
        "details": "See {IERC721-approve}."
      },
      "balanceOf(address)": {
        "details": "See {IERC721-balanceOf}."
      },
      "getApproved(uint256)": {
        "details": "See {IERC721-getApproved}."
      },
      "isApprovedForAll(address,address)": {
        "details": "See {IERC721-isApprovedForAll}."
      },
      "name()": {
        "details": "See {IERC721Metadata-name}."
      },
      "owner()": {
        "details": "Returns the address of the current owner."
      },
      "ownerOf(uint256)": {
        "details": "See {IERC721-ownerOf}."
      },
      "renounceOwnership()": {
        "details": "Leaves the contract without owner. It will not be possible to call `onlyOwner` functions. Can only be called by the current owner. NOTE: Renouncing ownership will leave the contract without an owner, thereby disabling any functionality that is only available to the owner."
      },
      "royaltyInfo(uint256,uint256)": {
        "details": "Returns how much royalty is owed and to whom, based on a sale price that may be denominated in any unit of exchange. The royalty amount is denominated and should be paid in that same unit of exchange."
      },
      "safeTransferFrom(address,address,uint256)": {
        "details": "See {IERC721-safeTransferFrom}."
      },
      "safeTransferFrom(address,address,uint256,bytes)": {
        "details": "See {IERC721-safeTransferFrom}."
      },
      "setApprovalForAll(address,bool)": {
        "details": "See {IERC721-setApprovalForAll}."
      },
      "symbol()": {
        "details": "See {IERC721Metadata-symbol}."
      },
      "tokenByIndex(uint256)": {
        "details": "See {IERC721Enumerable-tokenByIndex}."
      },
      "tokenOfOwnerByIndex(address,uint256)": {
        "details": "See {IERC721Enumerable-tokenOfOwnerByIndex}."
      },
      "tokenURI(uint256)": {
        "details": "See {IERC721Metadata-tokenURI}."
      },
      "totalSupply()": {
        "details": "See {IERC721Enumerable-totalSupply}."
      },
      "transferFrom(address,address,uint256)": {
        "details": "See {IERC721-transferFrom}."
      },
      "transferOwnership(address)": {
        "details": "Transfers ownership of the contract to a new account (`newOwner`). Can only be called by the current owner."
      }
    },
    "version": 1
  },
  "userdoc": {
    "kind": "user",
    "methods": {},
    "version": 1
  }
}